:020000040800F2
:10000000000400205301000881010008830100085A
:10001000870100088B0100088F0100080000000024
:100020000000000000000000000000009301000834
:1000300095010008000000009701000899010008E0
:1000400073010008730100087301000873010008C0
:1000500073010008730100087301000873010008B0
:1000600073010008730100087301000873010008A0
:100070007301000873010008730100087301000890
:100080007301000873010008730100087301000880
:100090007301000873010008730100087301000870
:1000A0007301000873010008730100087301000860
:1000B00073010008EF0100087301000873010008D4
:1000C0007301000873010008730100087301000840
:1000D00073010008FD09000873010008730100089E
:1000E0007301000873010008730100087301000820
:1000F0007301000873010008730100087301000810
:1001000073010008730100087301000873010008FF
:1001100073010008730100087301000873010008EF
:1001200073010008730100087301000873010008DF
:10013000DFF80CD002F00EFF00480047E70200088D
:10014000B802002030BF72B662B680F308887047EC
:10015000704708488047084981F3088807480047E6
:10016000FEE7FEE7FEE7FEE7FEE7FEE7FEE7FEE767
:10017000FEE7FEE751010008B80200203101000847
:10018000704700BFFEE700BFFEE700BFFEE700BF0D
:10019000FEE7704770477047704700007FB505461F
:1001A0000C460121022001F04CFCADF80850ADF8DE
:1001B00004400020ADF80A00ADF8060001A9FD4892
:1001C00001F0B9FE01221146FA4802F055F91D204E
:1001D0008DF8000000208DF8010003208DF802004A
:1001E00001208DF80300684601F049FA7FBD10B583
:1001F0000121F04802F003FC88B10121ED4802F032
:100200000FFCED48408A002805DDEB48408A401E7F
:10021000E949488203E00021E64802F012F910BDE6
:1002200070B50024642000F03BFC0546662D06D125
:100230000622E249002000F0C9FC012416E04FF438
:100240001670DE49088064204880062088800622D7
:10025000002000F0CCFC6621642000F04DFC6420FE
:1002600000F01EFC0546662D00D10124B4B904211E
:10027000D24801F02BF8D148C08866280DD04FF441
:100280001670CE4908806420488006208880662049
:10029000C8800421C94801F029F80124002C20D08D
:1002A0000020C5490880088148818881C88148802C
:1002B0008880C880088248828882C0480088C882B6
:1002C000BE4840880883BD488088488307E0642092
:1002D00000F0DCFA0E21002000F08EFF0446002C16
:1002E000F5D1204670BD092000F0C5FE482000F081
:1002F000B1FA00F0D1FB00F09DFB41F61F4142F244
:100300000F70FFF74BFF4FF4E13000F00DFFFFF7E8
:1003100087FF90E20821002000F00CFF03210B2052
:1003200000F008FFA448C08AA4490988884213D075
:10033000A148C08AA1490880642000F0B1FB0446AE
:10034000662C05D102229D49002000F050FC03E0FC
:1003500004219A4800F0CAFF9748008B97494988C2
:10036000884214D09448008B94494880642000F05F
:1003700097FB0446662C06D102229049491C104680
:1003800000F035FC03E004218C4800F0AFFF8A4800
:10039000408B8A498988884214D08748408B874996
:1003A0008880642000F07CFB0446662C06D1022283
:1003B0008249891C042000F01AFC03E004217F48D4
:1003C00000F094FF7C48008808B1FFF729FF7A48C5
:1003D000807800F00100E8B17748807800F01000E4
:1003E00018B101207449488203E07448808872493A
:1003F0004882012070490882002048800121084677
:1004000000F0FAFE6C48408A6D4908800121694875
:1004100002F017F86848007900F00200E8B1664879
:10042000807800F0200018B101206349488203E081
:10043000624880886049488203205F490882002022
:1004400088800121022000F0D7FE5B48408A5C4989
:1004500008800121574801F0F4FF5748807900F0E7
:10046000010088B35448807900F0020078B1534805
:10047000808851494882514800885049898800EB5A
:1004800041004F49088002204B4908820EE04B484A
:10049000808849494882494840884849898800EB12
:1004A000410047490880042043490882012045490A
:1004B000087000204049C8800121032000F09CFE04
:1004C00001213C4801F0BDFF3B48008A012806D0CD
:1004D00002284BD0032826D0042823D1DDE036485B
:1004E000408A002815DD0020334908814881012019
:1004F00088810020C8810846408A31490988081A45
:10050000642148432E49098890FBF1F02A498882EA
:1005100004E000202849888108828882072104207D
:1005200000F06AFE44E12448408A002814DD0020DF
:1005300021490881488188810120C8810846408A74
:100540001F490988081A642148431D49098890FBFE
:10055000F1F01949888204E000201749C881088217
:1005600088820721042000F047FE21E11548007829
:10057000012838D11048408A002825DD00200E4986
:100580000881488188810120C8810846408A0C4939
:100590000988081A09490988401A08498988401AAF
:1005A000642148430649098890FBF1F0024988829A
:1005B0006EE00000000400409800002004000020CD
:1005C000020000200000002000209B49C88102207A
:1005D0009A4908709A4800889749488201219948A9
:1005E00001F02FFF54E09548007802282BD1924863
:1005F000408A002818DD00208F49088101204881A9
:1006000000208881C8810846408A8F490988081AD5
:100610008B498988401A642148438B49098890FB9B
:10062000F1F08549888233E0002083494881032026
:1006300082490870824880887F4948820121814828
:1006400001F0FFFE24E07D480078032820D17A489D
:10065000408A002815DD0020774908814881012063
:1006600088810020C8810846408A77490988081A8D
:10067000642148437449098890FBF1F06E498882EF
:1006800006E000206D4908706B49888108828882E5
:100690000721042000F0B0FD8AE0684800780128B6
:1006A0002DD16548408A00281ADD00206249088162
:1006B000488188810120C8810846408A62490988AA
:1006C000081A5F494988401A5D498988401A64219F
:1006D00048435D49098890FBF1F05749888262E000
:1006E00000205549C8810220544908705448408868
:1006F000514948820121534801F0A3FE53E04F487D
:10070000007802282AD14C48408A002817DD0120B1
:1007100049490881488100208881C8810846408A6B
:1007200049490988081A46498988401A642148437A
:100730004549098890FBF1F03F49888233E0002069
:100740003D49488103203D4908703D4880883A4929
:10075000488201213B4801F074FE24E037480078CC
:10076000032820D13448408A002815DD0020324972
:1007700008814881012088810020C8810846408A7C
:1007800031490988081A642148432F49098890FB98
:10079000F1F02949888206E000202849087026499E
:1007A0008881088288820721042000F025FD00BF8F
:1007B00000BF2148008920B14FF4805023490860D0
:1007C00004E04FF480502149091D08601A4840890F
:1007D00050B14FF400701E490861400008614000AC
:1007E00008614000086109E04FF400701849486151
:1007F0004000486140004861400048610E488089DF
:1008000038B14FF4807011490860C000091D0860BC
:1008100011E00948C08938B14FF400600B49086005
:10082000C010091D086006E04FF480700749091DDB
:100830000860C00008606DE59800002000000020FE
:1008400004000020000400400200002010080140C5
:10085000001001404FF0E021096921F004014FF040
:10086000E0221161C21700EB5272C2F3C702234BA0
:100870001A701946097801EB4102C2EBC1114FF61B
:10088000FF7202EAC1011E4A1180704701461C4AEC
:1008900012884A434FF0E0235A6100229A610122F4
:1008A0001A6100BF4FF0E022106900F001021AB196
:1008B00000F48032002AF5D000224FF0E0231A61C4
:1008C0009A61704701460D4A12784A434FF0E0237F
:1008D0005A6100229A6101221A6100BF4FF0E022A2
:1008E000106900F001021AB100F48032002AF5D03C
:1008F00000224FF0E0231A619A6170470C0000203B
:100900000E00002000BF704700BF464A128802F068
:100910004002002AF9D0C2B2424B1B1D1A80704718
:1009200010B586B00446012144F2040001F07CF8C1
:100930004FF40070ADF8140003208DF81600182055
:100940008DF8170005A9384800F064FD4FF4806069
:10095000ADF8140004208DF8170005A9324800F006
:1009600059FD25208DF8000002208DF8010003209C
:100970008DF8020001208DF80300684600F07FFE2C
:1009800001940020ADF80800ADF80A00ADF80C00A5
:10099000ADF810000C20ADF80E0001A9214801F0BF
:1009A000F0F8012240F225511E4801F064F90121BE
:1009B0001C4801F054F906B010BD70B504460D4650
:1009C00016E000BF8021174801F008FA0028F9D08E
:1009D0002178144801F0ABF900BF4021114801F023
:1009E000FDF90028F9D040210E4801F000FA641CFE
:1009F000281EA5F10101CDB2E3D170BD10B540F2C2
:100A00002551084801F0F6F958B1064801F093F96C
:100A10000649074A1288885405480088401C044942
:100A2000088010BD0038014000080140340000205B
:100A30001400002008B50121142000F0F5FF4FF448
:100A4000C850ADF8000003208DF8020010208DF88A
:100A5000030069460E4800F0DDFC4FF4F050ADF89D
:100A6000000069460B4800F0D5FC4FF4807008493F
:100A700014310860C000086040000860C0100549DB
:100A8000486140004861400048614000486108BD3D
:100A9000000801400010014010B500F0BBF810BD87
:100AA00070B50446002600F0CEF82546E11704EBA9
:100AB00011610912A02202EB4101C8B200F071F9E4
:100AC00000F002F9E11704EB11610912A4EB012116
:100AD000C8B200F066F900F0F7F800F0B4F8A12011
:100AE00000F05FF900F0F0F8002000F087F906460A
:100AF00000F0CBF8304670BD70B504460E4600F0ED
:100B0000A2F82546E11704EB11610912A02202EBBD
:100B10004101C8B200F045F900F0D6F8E11704EB46
:100B200011610912A4EB0121C8B200F03AF900F0FA
:100B3000CBF8304600F035F900F0C6F800F0A5F823
:100B40000A20FFF7A3FE70BD2DE9F04105460E46D1
:100B50001746002409E0E20026FA02F2D1B22A196F
:100B600090B2FFF7C9FF601CC4B2BC42F3DBBDE822
:100B7000F0812DE9F04107460C460026002509E0EA
:100B800036023919491B491E88B2FFF789FF06440E
:100B9000681CC5B2A542F3DB3046BDE8F08110B554
:100BA000FF20FFF77DFF0446552C01D1002010BD2A
:100BB0005521FF20FFF7A0FFFF20FFF771FF04463C
:100BC000552C01D10020F2E70120F0E770B5064670
:100BD0000C46154608E03046721C96B2FFF760FFDF
:100BE00004F8010B681E85B2002DF4D170BD70B5FC
:100BF00005460C46164606E021782846FFF77CFF9E
:100C0000681C85B2641C301EA6F101018EB2F3D1BE
:100C100070BD000008B50121082000F005FFC020CC
:100C2000ADF8000010208DF8030003208DF80200BD
:100C300069468B4800F0EEFB01208A4908608A492A
:100C4000C1F89C0108BD10B58548006820F07040CF
:100C5000834908600846006840F040500860012061
:100C60008049091D08608049C1F898010420FFF7F8
:100C700029FE00207B49091D08600420FFF722FEA1
:100C800000207949C1F8980110BD10B5744800687A
:100C900020F07040724908600846006840F04050FB
:100CA000086000206F4908606F49C1F89C0104206A
:100CB000FFF708FE01206B4908606B49C1F89C01F1
:100CC0000420FFF7FFFD10BD10B500246448006844
:100CD00020F07040624908600846006840F000401B
:100CE000086001205F49091D0860FFF7EBFD012046
:100CF0005D49C1F89801FFF7E5FD07E0601CC4B24B
:100D0000FA2C03DDFFF7C1FF012010BD55487C38E8
:100D100000680028F2D15349086000BFF5E710B51C
:100D20000020504908604E48006820F070404C494F
:100D300008600846006840F04050086000204A49BA
:100D4000C1F89C010220FFF7BDFD01204549086064
:100D50000220FFF7B7FD00204349C1F8980110BDFC
:100D600010B500203F4908603D48006820F0704001
:100D70003B4908600846006840F040500860012088
:100D80003949C1F89C010220FFF79CFD012035493B
:100D900008600220FFF796FD00203349C1F8980152
:100DA00010BD70B504462E48006820F070402C49F4
:100DB00008600846006840F040500860002029495B
:100DC0000860002517E0E0092649091D0860600653
:100DD000040E0220FFF776FD01202349C1F8980197
:100DE0000220FFF76FFD00201E4908600220FFF778
:100DF00069FD681CC5B2082DE5DB70BD70B5054600
:100E000000241748006820F0704015490860084623
:100E1000006840F000400860002616E000201149FC
:100E200008600220FFF74EFD01200F49C1F898012C
:100E30006006040E0B487C38006808B1601CC4B220
:100E40000120FFF73FFD701CC6B2082EE6DB15B986
:100E5000FFF786FF01E0FFF762FF204670BD00004C
:100E6000000C01409881214200802142A34A0A409F
:100E70000243A34B1A6070470146072323EA01028D
:100E800012029F4B1B1D18684FF6FF0318409D4B25
:100E9000184310439A4B1B1D186070472DE9F04111
:100EA0000746884614461D462846FFF7E5FFC5F16C
:100EB000040007FA00F60F20284100EA0800064364
:100EC00006F00F06E21704EBD2625211920002F113
:100ED000E022D2F800212146E31704EBD3635B1133
:100EE000A4EB431C012303FA0CF31A432046E31737
:100EF00004EBD3635B119B0003F1E023C3F80021F3
:100F00008148005D40EA06107F490855BDE8F08140
:100F100070B504460B46CE1701EB9676C6F38700F4
:100F2000CE1701EB9676B610A1EB8606B606350E07
:100F3000764B9B6943F00103744EB3614FEAB633BD
:100F400053F820300F26AE40B343714E46F82030A0
:100F5000334653F8203004FA05F61E436C4B43F831
:100F600020606C4B1B6801268E403343694E336012
:100F700002F0010343B1674B0C331B6801268E401E
:100F80003343644E0C36336002F0020343B1614BCD
:100F900008331E6801238B401E435E4B08331E60DE
:100FA00070BD00B5002059490861C860142048612F
:100FB00000208861C8610846006840F001000860B0
:100FC000084640685449084050494860084600684F
:100FD000524908404D4908600846006820F48020C6
:100FE00008600846406820F4FE00486000208860E1
:100FF00000214FF00060FFF739FF00BD10B54048F9
:101000000830006840F004003D49083108603F485E
:10101000C06940F080503D49C8614148406840F493
:1010200080703F4948600846006840F0040008604E
:101030000846006840F002000860FFF783F810BD22
:101040003048001D2E49091D0860704701464906B9
:101050002E4A926942F001022C4B9A612C4A083ABE
:10106000526822F0E0622A4B083B5A601A465268E6
:101070000A435A60704730B504460025FFF791FFD8
:101080002248006840F480302049086000BF1F48B3
:101090000068400C0028FAD04FF480601B4948607B
:1010A000A01EC4B20846406840EA84404860084632
:1010B000406840F4803048601A48006840F03200D0
:1010C000184908601148006840F080700F490860B6
:1010D00000BF0E480068400E0028FAD00B48406858
:1010E00040F002000949486005E008484068C0F344
:1010F000870505F00305022DF7D130BD80FFFF1FE6
:1011000008ED00E00000FA0500E400E000100240F5
:1011100008000140000401400000FFF8FFFFF6FE58
:10112000007000400020024010B504462046FFF742
:10113000F7FB10BD2DE9F04106460D4600247C2D3D
:1011400002DB0120BDE8F0815A205C490870A5202F
:101150004870042088708320C870102008714E7178
:1011600008468571042000EB4500C7B221E0072145
:101170005248FFF722FC1E20FFF788FB50480078FA
:101180005A280DD14E484078A52809D14C4880787E
:10119000B84205D14B480188F81C814200D109E0D2
:1011A000601CC4B2032C04DB0020464908800120E7
:1011B000C8E7DCE700BF0A20FFF768FB002411E066
:1011C000082000EB44003E49085C072101EB440184
:1011D0003B4A515C40EA012031193B4A22F8110098
:1011E000601CC4B2AC42EBDB00203649088005200D
:1011F000FFF74CFB0020A5E72DE9F04106460D4620
:1012000000247C2D02DB0120BDE8F0815A202B490F
:101210000870A5204870032000EB450088708220EC
:10122000C870102008714E710327002413E0301994
:10123000254931F810000012062101EB44011F4A34
:1012400050543019204911F81000072101EB4401D6
:101250005054601CC4B2AC42E9DB002424E00620F8
:1012600000EB4500C1B21548FFF7A7FB1420FFF7BC
:101270000DFB134800785A280DD111484078A52855
:1012800009D10F488078B84205D10E480188F81C72
:10129000814200D109E0601CC4B2032C04DB0020B1
:1012A000084908800120AFE7D9E700BF00200549C1
:1012B00008800A20FFF7EAFA0020A5E716000020C0
:1012C00034000020140000209800002010B50246D1
:1012D0000B461B4903E031F8020B22F8020B181EE3
:1012E000A3F10104A3B2F6D1012010BD2DE9F04114
:1012F00004460D46124F01F0B6FB384601F0FAFBEA
:101300000646042E04D001F0B4FB0020BDE8F081B5
:101310000CE02188384601F0B0FC0646042E03D0CC
:1013200001F0A7FB0020F1E7BF1CA41C281EA5F1BB
:1013300001018DB2EDD101F09CFB0120E6E7000038
:1013400000F0000810B50446C649601A8C422FD040
:1013500009DCC548204480B1B0F5806F16D0B0F5E7
:10136000006F4AD11BE0B0F5806F2AD0B0F5006F56
:1013700030D0B0F5406F40D135E00121042000F0BD
:101380006DFB0021042000F069FB37E001210820FB
:1013900000F064FB0021082000F060FB2EE001213A
:1013A000102000F05BFB0021102000F057FB25E02F
:1013B0000121202000F052FB0021202000F04EFBF4
:1013C0001CE00121402000F049FB0021402000F0FA
:1013D00045FB13E00121802000F040FB002180202C
:1013E00000F03CFB0AE00121080200F037FB00217D
:1013F0004FF4807000F032FB00E000BF00BF10BD72
:1014000010B50121084600F029FB0021012000F061
:1014100025FB10BD2DE9F0410246002500260020E5
:1014200000230024002791F803C00CF00F0591F869
:1014300003C00CF0100CBCF1000F03D091F802C0F7
:101440004CEA050591F800C0BCF1000F31D01468DA
:1014500000202BE04FF0010C0CFA00F3B1F800C0B3
:101460000CEA03069E4220D183004FF00F0C0CFAC9
:1014700003F7BC4305FA03FC4CEA040491F803C0EB
:10148000BCF1280F06D14FF0010C0CFA00FCC2F899
:1014900014C00AE091F803C0BCF1480F05D14FF029
:1014A000010C0CFA00FCC2F810C0401C0828D1D373
:1014B0001460B1F800C0BCF1FF0F34DD54680020A7
:1014C0002EE000F1080C4FF0010808FA0CF3B1F817
:1014D00000C00CEA03069E4221D183004FF00F0C9E
:1014E0000CFA03F7BC4305FA03FC4CEA040491F838
:1014F00003C0BCF1280F05D100F1080C08FA0CF864
:10150000C2F8148091F803C0BCF1480F07D100F174
:10151000080C4FF0010808FA0CF8C2F81080401CC3
:101520000828CED35460BDE8F0814FF6FF710180EA
:10153000022181700421C170704702460020936827
:101540000B400BB1012000E0002070470146886885
:1015500080B2704702460020D3680B400BB10120D7
:1015600000E0002070470146C86880B27047016102
:101570007047416170470AB1016100E04161704705
:10158000C16070474FF480320A4382618161826199
:1015900082698269704702460020344B18684FF612
:1015A0008073184040EA02100843304B18607047BF
:1015B0002F49C8617047F0B50A4600230024002176
:1015C00000252A4E7168C0F3034583B200F440162B
:1015D000B6F5401F08D121F07061244E766826F0E0
:1015E0007066224F7E6012E000F48016B6F5801F10
:1015F00006D1032606FA05F4A14341F0706106E026
:10160000460D360103FA06F6B14341F0706122B18E
:10161000460D360103FA06F63143144E7160F0BDF3
:1016200030B500228B071C0F0F2303FA04F20F4B77
:1016300008338C1053F8243093430C4C08348D102D
:1016400044F8253023468C1053F824308C07240F9F
:1016500000FA04F42343054C08348D1044F8253077
:1016600030BD00000014014000F8FEBF0000014042
:101670000000204231490143314A1160704770B582
:10168000002100230F22C47804B32D4C246804F4F5
:10169000E064C4F5E064210AC1F10403CA4044785F
:1016A00004FA03F18478144021430901254C06789B
:1016B000A155047804F01F050124AC4005786D1194
:1016C000AD0005F1E025C5F8004109E0047804F01B
:1016D0001F050124AC401C4D0678761145F82640C4
:1016E00070BD1A4A0A400243154B1B1F1A6070470F
:1016F00039B1134A121D12680243114B1B1D1A60A7
:1017000006E00F4A121D126882430D4B1B1D1A6022
:101710007047042808D14FF0E021096941F0040125
:101720004FF0E022116107E04FF0E021096921F05C
:1017300004014FF0E0221161704700000000FA053B
:101740000CED00E000E400E080E100E080FFFF1F1E
:10175000DE48006840F00100DC4908600846406847
:10176000DB490840D949486008460068D949084023
:10177000D64908600846006820F4802008600846C2
:10178000406820F4FE004860002088607047CF4920
:10179000096821F48031CD4A11601146096821F4AD
:1017A00080211160B0F5803F03D0B0F5802F0ED1BD
:1017B00006E0C649096841F48031C44A116007E077
:1017C000C249096841F4A021C04A116000E000BF8D
:1017D00000BF704710B501460022002300204A11C7
:1017E000012A02D1B94C236806E0022A02D1B74C83
:1017F000236A01E0B54C636A01F01F0201249440A2
:101800001C400CB1012000E0002010BD38B50020C4
:1018100000900024002500BF3120FFF7DBFF0546C4
:101820000098401C00901DB90098B0F5A06FF3D14E
:101830003120FFF7CFFF08B1012400E0002420464B
:1018400038BD01460020A14A106820F0F80040EAA7
:10185000C10010607047A049086070470246002030
:101860009A4B586820F47C1042EA01031843974BC6
:101870005860704798490866704701460020934AAF
:10188000506820F003000843506070478F4840685C
:1018900000F00C007047014600208C4A506820F090
:1018A000F00008435060704701460020874A5068A6
:1018B00020F4E06008435060704701460020834AEE
:1018C000506820F4605040EAC1005060704729B170
:1018D0007E4A527A02437D4B5A7204E07B4A527A26
:1018E00082437A4B5A7270477B49D83108607047FF
:1018F00001460020754A506820F44040084350607B
:1019000070470021714A20321170704A82F820100D
:10191000012802D004280AD104E001216B4A2032B8
:10192000117005E00521694A2032117000E000BF06
:1019300000BF70476949086070476449096A0143FC
:10194000624A11627047654944390860704730B592
:1019500000210022002400235C4D6D6805F00C017D
:1019600021B1042905D0082923D105E05C4D05608B
:1019700022E05B4D05601FE0544D6D6805F4701268
:10198000022505EB9242514D6D6805F480341CB977
:10199000544D554305600BE04C4D6D6805F4003522
:1019A0001DB1504D5543056002E04D4D5543056056
:1019B00002E04B4D056000BF00BF444D6D6805F06F
:1019C000F0010909484D6B5C0568DD4045603F4DFD
:1019D0006D6805F4E061090A434D6B5C4568DD40C4
:1019E00085603A4D6D6805F46051C90A3E4D6B5CE7
:1019F0004568DD40C560354D6D6805F44041890B93
:101A00003A4D6B5CC568B5FBF3F5056130BD29B196
:101A10002E4A526902432D4B5A6104E02B4A526907
:101A200082432A4B5A61704729B1284A926902437E
:101A3000264B9A6104E0254A92698243234B9A61BE
:101A4000704729B1214AD2690243204BDA6104E090
:101A50001E4AD26982431D4BDA61704729B11B4A85
:101A6000D2680243194BDA6004E0184AD268824314
:101A7000164BDA60704729B1144A12690243134BBE
:101A80001A6104E0114A12698243104B1A617047CF
:101A900012494039086070470F49C86470470B49C4
:101AA000C87170470948406A40F080700749486231
:101AB000704701460020054A92680A400AB1012099
:101AC00000E0002070470149887270470010024012
:101AD0000000FFF8FFFFF6FE000042428004424291
:101AE00000127A0000093D001D0000202D0000209A
:101AF00010B50446D749601A8C422BD006DCD64874
:101B0000204498B1B0F5806F38D119E0B0F5806FFE
:101B10002AD0B0F56C4F31D101218803FFF79EFF29
:101B200000214FF48040FFF799FF28E0012148048D
:101B3000FFF7A1FF00214FF40030FFF79CFF1EE0EC
:101B400001218804FFF797FF00214FF48020FFF761
:101B500092FF14E00121C804FFF78DFF00214FF42C
:101B60000020FFF788FF0AE001210805FFF783FF47
:101B700000214FF48010FFF77EFF00E000BF00BFA0
:101B800010BD2DE9F04786B005460E460024A2465A
:101B900000BF00BF00272F462C8A4CF6FF70044080
:101BA000F08804432C82AC894EF6F3100440B088D0
:101BB00031890843718908430443AC81AC8A4FF6EC
:101BC000FF400440B0890443AC8201A8FFF7BFFE88
:101BD000A248874202D1DDF810A001E0DDF80CA098
:101BE0000AEBCA0000EB0A1031688900B0FBF1F87B
:101BF0006420B8FBF0F004012009642101FB108986
:101C0000322000EB0910B0FBF1F000F00F000443AC
:101C10002C8106B0BDE8F0874FF4E131016000216E
:101C20008180C18001810C21418100218181704727
:101C300010B502460020108A4FF2FF0318400B88AF
:101C40004C8823438C882343CC8823431843108239
:101C500010BD0021018041808180C180704721B189
:101C6000828942F40052828104E082894DF6FF733A
:101C70001A4082817047F0B50346002400260025F3
:101C800000201846C1F3421401F01F06012707FA8D
:101C900006F5012C01D10C3004E0022C01D11030EA
:101CA00000E014301AB107682F43076002E00768AC
:101CB000AF430760F0BD1AB1838A0B43838202E011
:101CC000838A8B4383827047028A4FF6F0731A40EF
:101CD0000282028A0A430282704782894FF2FF73AE
:101CE0001A40828182890A438281704721B18289A8
:101CF00042F00202828104E082894FF6FD731A40AD
:101D000082817047028A4FF6DF731A400282028A8C
:101D10000A430282704721B1028A42F48042028261
:101D200004E0028A4BF6FF731A4002827047C1F347
:101D300008028280704701468888C0F30800704717
:101D4000818941F0010181817047028BD2B2028307
:101D5000028B42EA012202837047028B02F47F4227
:101D60000283028B0A430283704721B1828A42F0C8
:101D70002002828204E0828A4FF6DF731A40828258
:101D8000704721B1828A42F01002828204E0828A86
:101D90004FF6EF731A408282704721B1828A42F077
:101DA0000802828204E0828A4FF6F7731A40828228
:101DB0007047828A4FF6FB731A408282828A0A43F6
:101DC0008282704721B1828A42F00202828204E05C
:101DD000828A4FF6FD731A408282704702460020C5
:101DE00013880B400BB1012000E000207047CA436C
:101DF0000280704770B502460B4600240021002582
:101E00000020C3F3421503F01F01012606FA01F179
:101E1000012D02D19689314006E0022D02D1168AA9
:101E2000314001E0968A31401C12012606FA04F482
:101E30001688344011B10CB1012000E0002070BDC3
:101E400010B5002200230A1201249440A3B2DC43FF
:101E5000048010BD004C004000BCFFBF00380140B2
:101E600010B50446F749601A8C4245D00CDCB4F139
:101E7000804F1DD0F448204418B3B0F5806F29D0AE
:101E8000B0F5006F54D12EE0B0F5806F3DD0B0F5C5
:101E90008E3F03D0B0F5923F4AD13FE00121C80206
:101EA000FFF7DCFD00214FF40060FFF7D7FD40E0B5
:101EB00001210846FFF7DFFD00210120FFF7DBFDD0
:101EC00037E001210220FFF7D6FD00210220FFF7B5
:101ED000D2FD2EE001210420FFF7CDFD00210420DA
:101EE000FFF7C9FD25E001210820FFF7C4FD00210F
:101EF0000820FFF7C0FD1CE001211020FFF7BBFD0B
:101F000000211020FFF7B7FD13E001212020FFF78B
:101F1000B2FD00212020FFF7AEFD0AE001214803B9
:101F2000FFF79CFD00214FF40050FFF797FD00E004
:101F300000BF00BF10BD028802F08F020280CA8875
:101F40004B881A4303881A4302808A8882850A884C
:101F50000285BE4A904202D0BD4A904201D10A7A1F
:101F6000028601228282704770B50024002200237D
:101F7000058C4FF6FE7635400584028C8388048BF1
:101F80004FF68F752C400D882C43751E2A400D8905
:101F90002A434D882A43CD888586AC4DA84202D07D
:101FA000AB4DA84213D14FF6F7752A404D892A430D
:101FB0004FF6FB752A408D882A4347F6FF652B4074
:101FC00047F6FF552B408D892B43CD892B438380CA
:101FD0000483028470BD70B5002400220023058CA8
:101FE0004FF6EF7635400584028C8388048B48F6E3
:101FF000FF752C400D884FF6FF7606EA05252C4329
:102000004FF6DF752A400D8906EA05152A434D88EB
:1020100006EA05152A43CD8805878C4DA84202D0D3
:102020008B4DA8421DD14FF67F752A404D894FF642
:10203000FF7606EA05152A434FF6BF752A408D88BC
:1020400006EA05152A4347F6FF352B4047F2FF7590
:102050002B408D8906EA85052B43CD8906EA850547
:102060002B4383800483028470BD70B5002400225A
:102070000023058C4FF6FF6635400584028C83886B
:10208000848B4FF68F752C400D882C434FF6FF55EF
:102090002A400D894FF6FF7606EA05252A434D882A
:1020A00006EA05252A43CD888587684DA84202D0D7
:1020B000674DA8421DD14FF2FF752A404D894FF65A
:1020C000FF7606EA05252A434FF6FF352A408D881C
:1020D00006EA05252A4346F6FF752B4045F6FF75AF
:1020E0002B408D8906EA05152B43CD8906EA051597
:1020F0002B4383808483028470BD70B5002400224A
:102100000023058C4EF6FF7635400584028C8388CB
:10211000848B48F6FF752C400D884FF6FF7606EA53
:1021200005252C434DF6FF752A400D8906EA053535
:102130002A434D8806EA05352A43CD88A0F8405049
:10214000424DA84202D0424DA84207D1C3F30D032D
:102150008D894FF6FF7606EA85152B4383808483AD
:10216000028470BD828B4FF2FF331A408283828BD0
:102170004FF6FF7303EA01231A4382837047F0B5D9
:102180000C461546002100220026078C4EF6FF7CE7
:1021900007EA0C070784818B028C4FF6FF7707EA6A
:1021A000043640F6FF4739404FF6FF7707EA052728
:1021B0004FF6FF7C0CEA033C47EA0C0739434DF627
:1021C000FF773A4046F480573A4381830284F0BD5A
:1021D000828B4FF6F3731A408283828B0A43828389
:1021E0007047F0B50C461546002100220026078CEA
:1021F0004FF6FF6C07EA0C070784818B028C4FF6C1
:10220000FF7707EA04264FF60C7739404FF6FF7741
:1022100007EA03172F4339434FF6FF573A4046F476
:1022200080773A4381830284F0BD028B4FF2FF3303
:102230001A400283028B4FF6FF7303EA01231A430D
:10224000028370470010004000FCFFBF002C0140DB
:1022500000340140F0B50C4615460021002200264E
:10226000078C4FF6EF7C07EA0C070784018B028C82
:102270004FF6FF7707EA041640F6FF4739404FF65E
:10228000FF7707EA033739434FF6FF7707EA052759
:1022900039434FF6DF773A4046F010073A4301835F
:1022A0000284F0BD028B4FF6F3731A400283028B57
:1022B0000A4302837047F0B50C4615460021002200
:1022C000068C4FF6FE773E400684018B028C4FF65B
:1022D0000C7631407E1C06EA03162E4331437E1EE7
:1022E000324044F00106324301830284F0BD70B5F0
:1022F00005460C46208850B92389A2886188284663
:10230000FFF7D9FFE1882846FFF7CCFF25E02088BA
:1023100004280AD12389A28861882846FFF79AFFFA
:10232000E1882846FFF781FF17E0208808280AD1B6
:102330002389A28861882846FFF753FFE188284651
:10234000FFF746FF09E02389A28861882846FFF746
:1023500016FFE1882846FFF705FF70BD2DE9F04123
:1023600005460C4600260127608808B9022600E0D1
:102370000026A088012801D1022700E0012720883B
:10238000A0B92389A28861882846FFF794FFE188D5
:102390002846FFF787FF23893A4631462846FFF74C
:1023A00059FFE1882846FFF740FF13E02389A28800
:1023B00061882846FFF74EFFE1882846FFF735FF82
:1023C00023893A4631462846FFF775FFE1882846BB
:1023D000FFF768FFBDE8F0810A884B881A438B88B5
:1023E0001A43CB881A430B891A434B891A438B89AA
:1023F0001A43A0F8442070474FF6FF7181800021F6
:102400000180C180418001727047002101804180BC
:102410008180C180018141818181C181704700211A
:1024200001804180012181800021C18001817047AC
:102430000021018041808180C180018141818181B1
:10244000704721B1028842F00102028004E0028854
:1024500040F2FE331A400280704731B1B0F8442098
:1024600042F40042A0F8442005E0B0F84420C2F352
:102470000E02A0F8442070471AB183890B43838170
:1024800002E083898B43838170478182704741EAF0
:102490000203A0F8483070471AB183890B43838147
:1024A00002E083898B438381704701894FF6F8727C
:1024B0001140018170470A46002101894FF68F7350
:1024C000194011430181704730B504460D46294635
:1024D0002046FFF7F0FF208940F00700208130BD43
:1024E0002DE9F04104460D4616461F46602D06D1E3
:1024F0003B46012231462046FFF7ACFE05E03B4655
:10250000012231462046FFF7D6FE29462046FFF736
:10251000D2FF208940F007002081BDE8F08170B52E
:102520000C4600210189C9B244EA02054FF6FF7644
:1025300006EA032635432943018170BD2DE9F041A8
:1025400005460E4617469846002443463A4631460D
:102550002846FFF7E4FF2C894FF6F870044044F05A
:1025600007044FF68F70044044F070042C81BDE8DE
:10257000F081F0B504460D4616461F463B463246EE
:1025800029462046FFF7CBFF208940F48040208178
:10259000F0BD0185828270470A460021018840F221
:1025A0008F331940114301807047F0B50C46154632
:1025B0001E460021002200230189028B038C4FF666
:1025C000F877394021434FF6FC473A4040F2011773
:1025D0003A434FF6DD773B404FF6FF7707EA0617A1
:1025E0002F433B43018102830384F0BD0A4600214F
:1025F000018B4FF68F7319401143018370470A46D0
:102600000021018B48F6FF7319404FF6FF7303EA70
:1026100002231943018370470A460021818B4FF63C
:102620008F7319401143818370470A460021818BC3
:1026300048F6FF7319404FF6FF7303EA022319436C
:102640008183704721B1028842F08002028004E059
:10265000028840F27F331A400280704721B182889D
:1026600042F00402828004E082884FF6FB731A4035
:102670008280704721B1828842F00802828004E0A3
:1026800082884FF6F7731A408280704721B18288A2
:1026900042F00102828004E082884FF6FE731A4005
:1026A000828070470A460021018B4FF6F77319406C
:1026B0001143018370470A460021018B4FF2FF73DB
:1026C00019404FF6FF7303EA022319430183704751
:1026D0000A460021818B4FF6F7731940114381831D
:1026E00070470A460021818B4FF2FF7319404FF665
:1026F000FF7303EA02231943818370470A460021CE
:10270000018B4FF6FB7319401143018370470A4652
:102710000021018B4FF6FF3319404FF6FF7303EA98
:1027200002231943018370470A460021818B4FF62B
:10273000FB7319401143818370470A460021818B46
:102740004FF6FF3319404FF6FF7303EA0223194394
:10275000818370470A460021018B4FF67F73194031
:102760001143018370470A460021018BC1F30E011A
:102770004FF6FF7303EA02231943018370470A46A9
:102780000021818B4FF67F7319401143818370477D
:102790000A460021818BC1F30E014FF6FF7303EA55
:1027A00002231943818370470A460021018C4FF6AA
:1027B000FD7319401143018470470A460021018CC2
:1027C0004FF6F77319401143018470470A46002100
:1027D000018C4FF6DF7319404FF6FF7303EA0213C3
:1027E0001943018470470A460021018C4FF67F731C
:1027F00019404FF6FF7303EA02131943018470472F
:102800000A460021018C4FF6FF5319404FF6FF7323
:1028100003EA02231943018470470A460021018C10
:102820004FF2FF7319404FF6FF7303EA0223194377
:10283000018470470A460021018C4DF6FF73194050
:102840004FF6FF7303EA023319430184704710B552
:10285000038C01248C40A3430384038C02FA01F40B
:10286000A4B22343038410BD10B5038C04248C4010
:10287000A3430384038C02FA01F4A4B22343038428
:1028800010BD30B5038C01248C40A343038409B1EF
:10289000082918D100F1180303EB61031B684FF6F8
:1028A0008F74234000F1180404EB6104236000F1ED
:1028B000180303EB61031B68134300F1180404EBD6
:1028C000610423601FE00B1FC3F34E0400F11803E3
:1028D0001B5948F6FF7423400C1FC4F34E0500F14A
:1028E000180463510B1FC3F34E0400F118031B5966
:1028F0004FF6FF7404EA022423430C1FC4F34E0571
:1029000000F11804635130BD21B1028842F0020287
:10291000028004E0028840F2FD331A4002807047D2
:1029200021B1028842F00402028004E0028840F2F1
:10293000FB331A400280704721B1828842F0800246
:10294000828004E082884FF67F731A40828070474D
:10295000028840F2F7331A40028002880A4302805C
:10296000704782884FF68F731A40828082880A43AC
:102970008280704702894FF6F8731A4002810289FB
:102980000A430281704702894FF67F731A40028121
:1029900002890A43028170478184704781857047AC
:1029A000818670470187704781877047A0F8401083
:1029B00070470288D2B2028002880A4302807047C0
:1029C0000146888E70470146088F70470146888F00
:1029D00070470146B1F8400070470146888C704747
:1029E0000146088D704702460020138A0B400BB148
:1029F000012000E000207047CA430282704730B5D2
:102A00000246002000230024158A05EA0103958967
:102A100005EA010413B10CB1012000E0002030BD33
:102A2000CA4302827047000001460020FB4A10683A
:102A300000F03800084310607047F849096821F039
:102A40000801F64A11601146096801431160704798
:102A5000F249096821F01001F04A11601146096835
:102A6000014311607047EE48EC494860ED4848600A
:102A70007047EA48006940F08000E8490861704703
:102A80000420E649C96801F0010109B101200EE006
:102A9000E249C96801F0040109B1022007E0DF49F9
:102AA000C96801F0100109B1032000E0042070475B
:102AB00008B500200090FF20009002E00098401E22
:102AC000009000980028F9D108BD70B5044604258F
:102AD000FFF7D6FF054605E0FFF7EAFFFFF7D0FF57
:102AE0000546641E012D01D1002CF5D104B9052540
:102AF000284670BD70B50546042440F6FF70FFF708
:102B0000E4FF0446042C19D1C448006940F00200D7
:102B1000C249086108464561006940F0400008610B
:102B200040F6FF70FFF7D1FF0446012C06D0BB48EA
:102B3000006941F6FD710840B8490861204670BD42
:102B400010B5042440F6FF70FFF7BFFF0446042CC5
:102B500018D1B248006940F00400B0490861084645
:102B6000006940F04000086140F6FF70FFF7ADFFDC
:102B70000446012C06D0A948006941F6FB710840C3
:102B8000A6490861204610BD10B5042440F6FF7028
:102B9000FFF79BFF0446042C3BD1A1489F49886066
:102BA000A04888600846006940F020000861084697
:102BB000006940F04000086140F6FF70FFF785FFB4
:102BC0000446042C1CD19548006941F6DF71084089
:102BD000924908610846006940F010000861A5208C
:102BE000914908800F20FFF770FF0446012C10D098
:102BF0008A48006941F6EF7108408849086108E099
:102C0000012C06D08548006941F6EF7108408349E0
:102C10000861204610BD70B505460E4604240F20FD
:102C2000FFF753FF0446042C25D17C48006940F08F
:102C300001007A4908612E800F20FFF746FF044605
:102C4000042C0FD1300C68800F20FFF73EFF0446A4
:102C5000012C10D07148006941F6FE7108406F499F
:102C6000086108E0012C06D06C48006941F6FE714D
:102C700008406A490861204670BD70B505460E4699
:102C800004240F20FFF721FF0446042C13D16348CE
:102C9000006940F00100614908612E800F20FFF7B4
:102CA00014FF0446012C06D05C48006941F6FE7111
:102CB00008405A490861204670BD70B505460E4669
:102CC00004240F20FFF701FF0446042C17D15448B9
:102CD00052498860534888600846006940F01000F7
:102CE00008612E800F20FFF7F0FE0446012C06D06D
:102CF0004A48006941F6EF7108404849086120469A
:102D000070BD2DE9F04704464FF6FF763746B046D2
:102D1000B1460425E443E6B2C4F30727C4F30748E9
:102D20004FEA14690F20FFF7D0FE0546042D40D16D
:102D30003B483A4988603B4888600846006940F053
:102D400010000861FF2E06D03748083006800F209B
:102D5000FFF7BBFE0546042D08D1FF2F06D03248F1
:102D60000A3007800F20FFF7B0FE0546042D0AD178
:102D7000B8F1FF0F07D02C480C30A0F800800F20CE
:102D8000FFF7A3FE0546042D0AD1B9F1FF0F07D0C6
:102D900025480E30A0F800900F20FFF796FE05465C
:102DA000012D06D01D48006941F6EF7108401B490E
:102DB00008612846BDE8F08770B50546042440F652
:102DC000FF70FFF782FE0446042C4AD114481349D1
:102DD0008860144888600846006940F02000086157
:102DE0000846006940F04000086140F6FF70FFF7B8
:102DF0006CFE0446042C2BD10848006941F6DF71B3
:102E00000840064908610846006940F01000086162
:102E100065B10020044908800BE00000002002405A
:102E200023016745AB89EFCD00F8FF1FA520454979
:102E3000088040F6FF70FFF748FE0446012C10D0D2
:102E40004148006941F6EF7108403F49086108E0D8
:102E5000012C06D03C48006941F6DF7108403A4930
:102E60000861204670BD2DE9F04107460D46164623
:102E70000424364834498860354888600F20FFF7BD
:102E800024FE0446042C1AD12F48006940F010009B
:102E90002D49086147EA0500304340F0F800294910
:102EA000891C08800F20FFF710FE0446012C06D075
:102EB0002548006941F6EF71084023490861204622
:102EC000BDE8F0812048C069800870471E48006A4C
:102ED000704700201C49C96901F0020109B10120B5
:102EE00000E00020704700201749096801F0200128
:102EF00009B1012000E00020704729B1124A12698F
:102F00000243114B1A6104E00F4A126982430E4BCF
:102F10001A61704701460020012908D10A4AD26986
:102F200002F001020AB1012008E0002006E0064A92
:102F3000D2680A400AB1012000E00020704702492F
:102F4000C860704700F8FF1F00200240230167455A
:102F5000AB89EFCD064C074D06E0E06840F0010379
:102F600094E8070098471034AC42F6D3FDF7E4F834
:102F7000982F0008B82F000802E008C8121F08C1E7
:102F8000002AFAD170477047002001E001C1121FEA
:102F9000002AFBD170470000B82F00080000002075
:102FA00034000000782F0008EC2F000834000020C7
:102FB00084020000882F00080000000000000000CC
:102FC0000000000000000000000000000000000001
:102FD00000000000000000000001020304010203E1
:0C2FE000040607080902040608000000AF
:0400000508000131BD
:00000001FF
