:020000040800F2
:10000000000400205301000881010008830100085A
:10001000870100088B0100088F0100080000000024
:100020000000000000000000000000009301000834
:1000300095010008000000009701000899010008E0
:1000400073010008730100087301000873010008C0
:1000500073010008730100087301000873010008B0
:1000600073010008730100087301000873010008A0
:100070007301000873010008730100087301000890
:100080007301000873010008730100087301000880
:100090007301000873010008730100087301000870
:1000A0007301000873010008730100087301000860
:1000B0007301000873010008730100087301000850
:1000C0007301000873010008730100087301000840
:1000D0007301000873010008730100087301000830
:1000E0007301000873010008730100087301000820
:1000F0007301000873010008730100087301000810
:1001000073010008730100087301000873010008FF
:1001100073010008730100087301000873010008EF
:1001200073010008730100087301000873010008DF
:10013000DFF80CD001F08CFB00480047AF0100084D
:100140003802002030BF72B662B680F3088870476C
:10015000704708488047084981F3088807480047E6
:10016000FEE7FEE7FEE7FEE7FEE7FEE7FEE7FEE767
:10017000FEE7FEE7510100083802002031010008C7
:10018000704700BFFEE700BFFEE700BFFEE700BF0D
:10019000FEE77047704770477047000000207249C3
:1001A000088048808880C8800872487270471CB5F3
:1001B000102000F082FA402000F0DEF800F034F960
:1001C0004FF47A7000F0F4F800F0CEFA00F0A3FBE0
:1001D00000F0B1FBFFF7E2FF5020634908800026E2
:1001E00000F0BAFB00200090019001248DF800007F
:1001F00001208DF8010002208DF8020003208DF807
:10020000030004208DF8040005208DF80500062069
:100210008DF8060007208DF80700A4E00A2000F002
:1002200006FB514988800B2000F001FB4E49C88035
:100230000E2000F00FFB4C494880002E42D10846AA
:100240008088B0F5C87F2FDA4FF48071474800F0FE
:1002500094FE4FF40061464800F08FFE4FF40061B9
:10026000424800F08CFE07E00A2000F0E0FA3E4928
:100270008880642000F09CF83B488088B0F5C87FF7
:10028000F2DB4FF48071394800F079FE0126F1036A
:10029000374800F072FE4FF4FA7000F089F8F1036D
:1002A000334800F06CFE0CE00126F103304800F00A
:1002B00064FE4FF4FA7000F07BF8F1032C4800F074
:1002C0005EFE50E03EB32848C088B0F5E17F05DD12
:1002D0004FF40061254800F050FE09E02248C08834
:1002E000B0F5967F04DC4FF40061204800F047FE33
:1002F0001D488088B0F5C87F17DA1B4840881A4926
:100300000988884208DA4FF40061194800F037FE86
:1003100001201549087210E04FF40061144800F004
:100320002CFE00201049087207E04FF400611048CD
:1003300000F023FE00200C490872DDE9000100F006
:1003400075FC204600F04FFC00F017FC05461DB17F
:10035000600040EAE410C4B2002000E0401C0549FF
:100360008842FBD300BF59E7280000200018014055
:10037000000C0140A08601004FF0E021096921F046
:1003800004014FF0E0221161C21700EB5272C2F378
:10039000C702234B1A701946097801EB4102C2EBE0
:1003A000C1114FF6FF7202EAC1011E4A1180704767
:1003B00001461C4A12884A434FF0E0235A6100224A
:1003C0009A6101221A6100BF4FF0E022106900F02B
:1003D00001021AB100F48032002AF5D000224FF059
:1003E000E0231A619A61704701460D4A12784A4328
:1003F0004FF0E0235A6100229A6101221A6100BF86
:100400004FF0E022106900F001021AB100F48032CE
:10041000002AF5D000224FF0E0231A619A6170475C
:10042000000000200200002008B50121084600F06D
:1004300093FF01211B4800F0C4FD0121482000F07A
:100440008BFF4FF40840ADF8000003208DF8020048
:1004500010208DF803006946134800F0E1FC4FF4CA
:100460001060ADF8000003208DF8020010208DF818
:10047000030069460D4800F0D3FC4FF400610A48C0
:1004800000F07BFD4FF40061084800F078FD4FF468
:100490008071064800F073FD4FF40041024800F0FF
:1004A0006EFD08BD00023000000C01400018014044
:1004B000A24A0A400243A24B1A6070470146072332
:1004C00023EA010212029E4B1B1D18684FF6FF0320
:1004D00018409C4B18431043994B1B1D18607047E4
:1004E0002DE9F0410746884614461D462846FFF789
:1004F000E5FFC5F1040007FA00F60F20284100EAE5
:100500000800064306F00F06E21704EBD262521110
:10051000920002F1E022D2F800212146E31704EB19
:10052000D3635B11A4EB431C012303FA0CF31A43BE
:100530002046E31704EBD3635B119B0003F1E02338
:10054000C3F800218048005D40EA06107E49085546
:10055000BDE8F08170B504460B46CE1701EB9676E8
:10056000C6F38700CE1701EB9676B610A1EB860690
:10057000B606350E754B9B6943F00103734EB361AC
:100580004FEAB63353F820300F26AE40B343704ED7
:1005900046F82030334653F8203004FA05F61E435F
:1005A0006B4B43F820606B4B1B6801268E40334336
:1005B000684E336002F0010343B1664B0C331B6895
:1005C00001268E403343634E0C36336002F0020343
:1005D00043B1604B08331E6801238B401E435D4BC3
:1005E00008331E6070BD00B5002058490861C8601E
:1005F0001420486100208861C8610846006840F006
:100600000100086008464068534908404F49486067
:1006100008460068514908404C490860084600688F
:1006200020F4802008600846406820F4FE004860FE
:100630000020886000214FF00060FFF739FF00BD07
:1006400010B53F480830006840F004003C490831CC
:1006500008603E48C06940F080503C49C86140484D
:10066000406840F480703E4948600846006840F0A9
:10067000040008600846006840F002000860FFF7C8
:1006800061FD10BD2F48001D2D49091D08607047F0
:10069000014649062D4A926942F001022B4B9A61AC
:1006A0002B4A083A526822F0E062294B083B5A6014
:1006B0001A4652680A435A60704730B5044600250E
:1006C000FFF791FF2148006840F001001F490860D2
:1006D00000BF1E48006840080028FAD04FF4806030
:1006E0001A494860A01EC4B20846406840EA8440E7
:1006F00048600846406848601A48006840F0320088
:10070000184908601148006840F080700F4908607F
:1007100000BF0E480068400E0028FAD00B48406821
:1007200040F002000949486005E008484068C0F30D
:10073000870505F00305022DF7D130BD80FFFF1FAF
:1007400008ED00E00000FA0500E400E000100240BF
:1007500008000140000401400000FFF8FFFFF6FE22
:10076000007000400020024000B587B001214FF426
:10077000067000F0F1FD4FF4004000F051FD032041
:10078000ADF8040000208DF8070001A96E4800F0C4
:1007900047FB1320ADF8040000208DF8070001A9E5
:1007A0006A4800F03DFB6A4800F03AFE00200290E3
:1007B0008DF80C008DF80D004FF46020049000209F
:1007C000059001208DF8180002A9614800F055FE3F
:1007D00001215F4800F07DFE5D4800F09CFE00BFF7
:1007E0005B4800F09DFE0028FAD1594800F0A2FEB7
:1007F00000BF574800F0A3FE0028FAD107B000BDA3
:1008000010B50446032301222146514800F0CDFED5
:1008100001214F4800F09DFE00BF02214C4800F02E
:10082000EAFF0028F9D04A4800F026FF10BD70B555
:1008300006460024002508E03046FFF7E1FF0444A7
:100840000120FFF7B5FD681CC5B2042DF4DBC4F32D
:10085000491070BD2DE9F0410646002400273046BE
:10086000FFF7E5FF05463B480088A84202DA002072
:10087000BDE8F0813748B0F8C600A84201DD63202A
:10088000F6E7002423E0334830F81400A8421CDBCC
:100890003049601C31F81000A84216DA084630F8DA
:1008A00014308446601C3CF81000181A82B20B46C3
:1008B000601C33F81000281A81B291FBF2F3601C1F
:1008C00018441F3887B23846D2E7601C84B2632CC4
:1008D000D9DB0020CCE710B501211D4800F039FE1E
:1008E00000BF02211A4800F086FF0028F9D01848FE
:1008F00000F0C2FE10BD10B50121154800F029FE20
:1009000000BF0221124800F076FF0028F9D01048FD
:1009100000F0B2FE10BD10B5072301220A210C48D9
:1009200000F043FE072302220B21094800F03DFEA0
:10093000FFF71AFF10BD10B5072301220E2104484E
:1009400000F033FE10BD0000000C0140001001401B
:10095000002401409218000810B500F0BDF90020F5
:1009600000F0AFF9072000F0A5F9442000F0CAF824
:10097000012000F0A6F900204349087043480021F7
:100980000160416010BD1CB5002040490870012085
:100990004870022088700320C87004200871052068
:1009A0004871062088710720C87103C9CDE900018C
:1009B00000F03CF91CBD10B50120334908700878DF
:1009C00000F011F910BD002031490870314908705C
:1009D0003149087031490860704710B500F0CDF812
:1009E00004462CB101202C4908702948047002E00B
:1009F00000202949087028480078002842D124485E
:100A00000078012804D0032816D0052835D123E02A
:100A10002048007800F0010030B11E48007820F036
:100A200001001C49087006E01A48007820F0010017
:100A3000401C1849087021E01648007800F00100B9
:100A400048B116480068B0F5FA5F04D21348006850
:100A50000A301249086011E00E48007800F00100E9
:100A600050B10E48006840F6B831884204D90B48AE
:100A700000680A380949086000E000BF00BF002094
:100A80000349087010BD00000C0000200400002085
:100A90000D0000200F0000200E000020100000209C
:100AA00038B5044600BF4FF48060ADF80000102058
:100AB0008DF8030003208DF802006946A04800F07D
:100AC000AFF900BF00251AE04FF400619C4800F028
:100AD00056FA04F0010028B14FF48061984800F004
:100AE0004CFA04E04FF48061954800F048FA641035
:100AF0004FF40061924800F040FA681CC5B2082D1E
:100B0000E2DB38BD10B504464FF480518C4800F04C
:100B100036FA2046FFF7C4FF4FF48051884800F0B2
:100B20002CFA10BD38B5002400BF4FF48060ADF83A
:100B3000000004208DF803006946814800F070F938
:100B400000BF002515E064104FF400617C4800F000
:100B500016FA4FF480617A4800F0F5F9012801D1C6
:100B600044F080044FF40061754800F006FA681CF8
:100B7000C5B2082DE7DB204638BD38B500254FF457
:100B800080516F4800F0FBF94220FFF789FF0024F5
:100B900005E0FFF7C7FF0DF80400601CC4B2042C89
:100BA000F7DB4FF48051664800F0E7F9002415E0C8
:100BB0001DF8040000F0010020B1012000EB44000A
:100BC000C5B20DE01DF80400C0F3001020B10220F2
:100BD00000EB4400C5B203E0601CC4B2042CE7DBA8
:100BE00000BF284638BD7CB5054600241BE0C4F193
:100BF000070045FA00F000F001000DF804004FF482
:100C000080514F4800F0BBF94E49085DFFF748FF9F
:100C10001DF80400FFF744FF4FF48051484800F0EE
:100C2000ACF9601CC4B2082CE1DB7CBD13B582B00A
:100C30009DF808004449085C8DF800009DF8090003
:100C4000085C8DF801009DF80A00085C8DF8020030
:100C50009DF80B00085C8DF803009DF80C00085C03
:100C60008DF804009DF80D00085C8DF805009DF8D6
:100C70000E00085C8DF806009DF80F00085C8DF8EA
:100C80000700002413E04FF480512D4800F077F95D
:100C90002E49085DFFF704FF1DF80400FFF700FF71
:100CA0004FF48051264800F068F9601CC4B2082C4B
:100CB000E9DB1FBD10B5044644F08800FFF722FFB2
:100CC00010BD10B504461CB18820FFF71BFF02E0E1
:100CD0008020FFF717FF10BD08B50121202000F08C
:100CE0003BFB4FF48050ADF8000010208DF803005E
:100CF00003208DF802006946114800F091F84FF486
:100D00000060ADF8000069460D4800F089F84FF426
:100D10008060ADF800006946094800F081F84FF4A2
:100D20008051074800F029F94FF40061044800F0B1
:100D300024F94FF48061024800F01FF908BD00005B
:100D4000001401407F1900085A190008771900089B
:100D500010B50446C649601A8C422FD009DCC5483C
:100D6000204480B1B0F5806F16D0B0F5006F4AD145
:100D70001BE0B0F5806F2AD0B0F5006F30D0B0F531
:100D8000406F40D135E00121042000F0FFFA00213E
:100D9000042000F0FBFA37E00121082000F0F6FA09
:100DA0000021082000F0F2FA2EE00121102000F0CE
:100DB000EDFA0021102000F0E9FA25E001212020C1
:100DC00000F0E4FA0021202000F0E0FA1CE001210C
:100DD000402000F0DBFA0021402000F0D7FA13E0B9
:100DE0000121802000F0D2FA0021802000F0CEFA0C
:100DF0000AE00121080200F0C9FA00214FF48070D6
:100E000000F0C4FA00E000BF00BF10BD10B5012122
:100E1000084600F0BBFA0021012000F0B7FA10BD2F
:100E20002DE9F04102460025002600200023002481
:100E3000002791F803C00CF00F0591F803C00CF0E7
:100E4000100CBCF1000F03D091F802C04CEA05056C
:100E500091F800C0BCF1000F31D0146800202BE0E5
:100E60004FF0010C0CFA00F3B1F800C00CEA0306D5
:100E70009E4220D183004FF00F0C0CFA03F7BC43C5
:100E800005FA03FC4CEA040491F803C0BCF1280FF6
:100E900006D14FF0010C0CFA00FCC2F814C00AE0B5
:100EA00091F803C0BCF1480F05D14FF0010C0CFACA
:100EB00000FCC2F810C0401C0828D1D31460B1F85F
:100EC00000C0BCF1FF0F34DD546800202EE000F1BB
:100ED000080C4FF0010808FA0CF3B1F800C00CEA56
:100EE00003069E4221D183004FF00F0C0CFA03F74A
:100EF000BC4305FA03FC4CEA040491F803C0BCF1BE
:100F0000280F05D100F1080C08FA0CF8C2F814807B
:100F100091F803C0BCF1480F07D100F1080C4FF065
:100F2000010808FA0CF8C2F81080401C0828CED33B
:100F30005460BDE8F0814FF6FF710180022181709D
:100F40000421C17070470246002093680B400BB12A
:100F5000012000E0002070470146886880B2704799
:100F600002460020D3680B400BB1012000E00020B6
:100F700070470146C86880B270470161704741619F
:100F800070470AB1016100E041617047C16070477C
:100F90004FF480320A438261816182618269826991
:100FA000704702460020344B18684FF68073184093
:100FB00040EA02100843304B186070472F49C8615F
:100FC0007047F0B50A4600230024002100252A4E70
:100FD0007168C0F3034583B200F44016B6F5401FB4
:100FE00008D121F07061244E766826F07066224F99
:100FF0007E6012E000F48016B6F5801F06D103264D
:1010000006FA05F4A14341F0706106E0460D360191
:1010100003FA06F6B14341F0706122B1460D360184
:1010200003FA06F63143144E7160F0BD30B500226C
:101030008B071C0F0F2303FA04F20F4B08338C109D
:1010400053F8243093430C4C08348D1044F8253069
:1010500023468C1053F824308C07240F00FA04F434
:101060002343054C08348D1044F8253030BD000072
:101070000014014000F8FEBF0000014000002042C3
:10108000DE48006840F00100DC490860084640681E
:10109000DB490840D949486008460068D9490840FA
:1010A000D64908600846006820F480200860084699
:1010B000406820F4FE004860002088607047CF49F7
:1010C000096821F48031CD4A11601146096821F484
:1010D00080211160B0F5803F03D0B0F5802F0ED194
:1010E00006E0C649096841F48031C44A116007E04E
:1010F000C249096841F4A021C04A116000E000BF64
:1011000000BF704710B501460022002300204A119D
:10111000012A02D1B94C236806E0022A02D1B74C59
:10112000236A01E0B54C636A01F01F020124944078
:101130001C400CB1012000E0002010BD38B500209B
:1011400000900024002500BF3120FFF7DBFF05469B
:101150000098401C00901DB90098B0F5A06FF3D125
:101160003120FFF7CFFF08B1012400E00024204622
:1011700038BD01460020A14A106820F0F80040EA7E
:10118000C10010607047A049086070470246002007
:101190009A4B586820F47C1042EA01031843974B9D
:1011A0005860704798490866704701460020934A86
:1011B000506820F003000843506070478F48406833
:1011C00000F00C007047014600208C4A506820F067
:1011D000F00008435060704701460020874A50687D
:1011E00020F4E06008435060704701460020834AC5
:1011F000506820F4605040EAC1005060704729B147
:101200007E4A527A02437D4B5A7204E07B4A527AFC
:1012100082437A4B5A7270477B49D83108607047D5
:1012200001460020754A506820F440400843506051
:1012300070470021714A20321170704A82F82010E4
:10124000012802D004280AD104E001216B4A20328F
:10125000117005E00521694A2032117000E000BFDD
:1012600000BF70476949086070476449096A0143D3
:10127000624A11627047654944390860704730B569
:1012800000210022002400235C4D6D6805F00C0154
:1012900021B1042905D0082923D105E05C4D056062
:1012A00022E05B4D05601FE0544D6D6805F470123F
:1012B000022505EB9242514D6D6805F480341CB94E
:1012C000544D554305600BE04C4D6D6805F40035F9
:1012D0001DB1504D5543056002E04D4D554305602D
:1012E00002E04B4D056000BF00BF444D6D6805F046
:1012F000F0010909484D6B5C0568DD4045603F4DD4
:101300006D6805F4E061090A434D6B5C4568DD409A
:1013100085603A4D6D6805F46051C90A3E4D6B5CBD
:101320004568DD40C560354D6D6805F44041890B69
:101330003A4D6B5CC568B5FBF3F5056130BD29B16D
:101340002E4A526902432D4B5A6104E02B4A5269DE
:1013500082432A4B5A61704729B1284A9269024355
:10136000264B9A6104E0254A92698243234B9A6195
:10137000704729B1214AD2690243204BDA6104E067
:101380001E4AD26982431D4BDA61704729B11B4A5C
:10139000D2680243194BDA6004E0184AD2688243EB
:1013A000164BDA60704729B1144A12690243134B95
:1013B0001A6104E0114A12698243104B1A617047A6
:1013C00012494039086070470F49C86470470B499B
:1013D000C87170470948406A40F080700749486208
:1013E000704701460020054A92680A400AB1012070
:1013F00000E00020704701498872704700100240E9
:101400000000FFF8FFFFF6FE000042428004424267
:1014100000127A0000093D00140000202400002082
:1014200010B50446F748204430B1B0F5806F0DD0B8
:10143000B0F5C05F1ED113E001214802FFF7A6FFFF
:1014400000214FF40070FFF7A1FF14E00121880292
:10145000FFF79CFF00214FF48060FFF797FF0AE041
:101460000121C803FFF792FF00214FF40040FFF76E
:101470008DFF00E000BF00BF10BD30B50246002068
:1014800000235068E04C20400D790C6844EA0524A4
:10149000204350609068DD4C2040D1E902542C4339
:1014A0004D7944EA450420439060D06A20F47000EE
:1014B0000C7C641E1C43E3B240EA0350D06230BD92
:1014C00000210160017141718160C16001210174DD
:1014D000704721B1826842F00102826003E08268B5
:1014E00022F001028260704721B1826842F480726A
:1014F000826003E0826822F480728260704710B5D7
:101500000023CBB21AB144681C43446002E0446833
:101510009C43446010BD816841F0080181607047C0
:10152000014600208A6802F008020AB1012000E0AA
:1015300000207047816841F00401816070470146D6
:1015400000208A6802F004020AB1012000E00020B5
:10155000704721B1826842F4A002826003E0826891
:1015600022F4A00282607047014600208A6802F4DB
:1015700080020AB1012000E00020704710B50A4641
:1015800000210023416821F46041531E41EA4331A8
:10159000416010BD21B1426842F40062426003E044
:1015A000426822F4006242607047F0B504460D467E
:1015B00000200021092D11DDE068A5F10A0606EBE7
:1015C0004607072606FA07F18843A5F10A0606EB47
:1015D000460603FA06F10843E0600CE0206905EBDB
:1015E0004507072606FA07F1884305EB450603FA87
:1015F00006F108432061072A0FDA606B561E06EBDE
:1016000086071F2606FA07F18843561E06EB860654
:1016100005FA06F10843606322E00D2A0FDA206B19
:10162000D61F06EB86071F2606FA07F18843D61F4A
:1016300006EB860605FA06F10843206310E0E06A2F
:10164000A2F10D0606EB86071F2606FA07F188436E
:10165000A2F10D0606EB860605FA06F10843E062E4
:10166000F0BD21B1826842F48012826003E082689A
:1016700022F48012826070470146C86C80B27047C5
:1016800063480068704721B1426842F4806242605A
:1016900003E0426822F480624260704721B14268F0
:1016A00042F48052426003E0426822F48052426079
:1016B00070470A460021816821F4E04111438160AE
:1016C000704721B1826842F40042826003E0826880
:1016D00022F400428260704721B1826842F4021213
:1016E000826003E0826822F4021282607047014641
:1016F00000208A6802F400120AB1012000E00020F4
:101700007047F0B50446154600200022002609293E
:1017100011DDE068A1F10A0707EB470C072707FA7C
:101720000CF29043A1F10A0707EB470703FA07F20F
:101730001043E0600CE0206901EB410C072707FA39
:101740000CF2904301EB410703FA07F210432061CA
:10175000A06BC0F30156EF1C06F1010CA7EB0C07C0
:1017600007EB870C1F2707FA0CF29043EF1C06F1DA
:10177000010CA7EB0C0707EB870701FA07F21043F0
:10178000A063F0BD10B50A4600210023816B21F44F
:101790004011531E41EA0351816310BD425070470E
:1017A00002465018806A80B270470A46002141689C
:1017B000184B194011434160704741628262704783
:1017C0000A460021416821F01F0111434160704722
:1017D00040B10F494439096841F400010C4A443AC8
:1017E000116007E00A494439096821F40001084AF8
:1017F000443A116070470246002013680B405BB109
:1018000001200AE000DCFEBFFFFEF0FFFDF7F1FF64
:101810004C240140FFFD3FFF00207047CA43026097
:10182000704770B502460020002300240B12556853
:10183000CEB205EA060415681D4015B10CB10120B1
:1018400000E0002070BD00220A12D34303607047FD
:10185000064C074D06E0E06840F0010394E80700FD
:1018600098471034AC42F6D3FEF766FC881900089E
:10187000A819000802E008C8121F08C1002AFAD1FE
:1018800070477047002001E001C1121F002AFBD100
:101890007047EF02E602DD02D402CB02C202B902B7
:1018A000AF02A6029C02930289027F0275026C02BB
:1018B000620258024E0244023A02310227021D021D
:1018C00013020A020002F601ED01E301DA01D1017F
:1018D000C801BE01B501AC01A4019B0192018A01BE
:1018E00081017901710169016101590151014A01C7
:1018F00042013B0134012D0126011F011901120192
:101900000C010501FF00F900F400EE00E800E3001F
:10191000DD00D800D300CE00C900C400BF00BB006A
:10192000B600B200AE00AA00A600A2009E009A0077
:10193000960093008F008C008900850082007F0054
:101940007C0079007600730071006E006C00690005
:1019500066006400620060005D003F065B4F666DDC
:101960007D077F6F777C395E7971BF86DBCFE6EDCF
:10197000FD87FFEF003876C0C2C4C6C8CACCCEC14E
:10198000C3C5C7C9CBCDCF00A819000800000020EF
:101990002800000074180008D01900082800002052
:1019A0001002000084180008000000000000000081
:1019B0000000000000000000000000000000000027
:1019C00001020304010203040607080902040608D1
:0400000508000131BD
:00000001FF
