:020000040800F2
:10000000000400205301000881010008830100085A
:10001000870100088B0100088F0100080000000024
:100020000000000000000000000000009301000834
:1000300095010008000000009701000899010008E0
:1000400073010008730100087301000873010008C0
:1000500073010008730100087301000873010008B0
:1000600073010008730100087301000873010008A0
:100070007301000873010008730100087301000890
:100080007301000873010008730100087301000880
:100090007301000873010008730100087301000870
:1000A0007301000873010008730100087301000860
:1000B00073010008F70100087301000873010008CC
:1000C0007301000873010008730100087301000840
:1000D000730100089D0F00087301000873010008F8
:1000E0007301000873010008730100087301000820
:1000F0007301000873010008730100087301000810
:1001000073010008730100087301000873010008FF
:1001100073010008730100087301000873010008EF
:1001200073010008730100087301000873010008DF
:10013000DFF80CD003F042FC004800478F0A0008AB
:100140006803002030BF72B662B680F3088870473B
:10015000704708488047084981F3088807480047E6
:10016000FEE7FEE7FEE7FEE7FEE7FEE7FEE7FEE767
:10017000FEE7FEE751010008680300203101000896
:10018000704700BFFEE700BFFEE700BFFEE700BF0D
:10019000FEE7704770477047704700007FB505461F
:1001A0000C460121022001F0D0FEADF80850ADF858
:1001B00004400020ADF80A00ADF8060001A9FC4893
:1001C00002F055FB01221146F94802F0F1FD1D2015
:1001D0008DF8000000208DF8010003208DF802004A
:1001E00001208DF80300684601F0CDFC0021F048A5
:1001F00002F0C3FD7FBD10B50121ED4803F09BF86F
:1002000018B10121EA4803F0A7F810BD10B5E9487C
:100210000079012806D002281AD0032841D00428EA
:100220007ED15DE0E448808F00EB40104FF6FF7117
:1002300001EA4000DF4988810020088148700120E0
:100240004978DD4A22F811000220DA49087177E086
:100250000A2000F0EBFDD7480089401CD5490881F1
:1002600008460089898988421ADB0020D149088123
:100270004978D14A22F81100CE484078401CCD4937
:10028000487008464078042804DB002048700320AA
:10029000087105E00120C7494978C74A22F81100D2
:1002A0004EE00120C4490881052000F0BFFD012077
:1002B000C1494881052000F0B9FD0120BE4988816F
:1002C000052000F0B3FD0120BB49C881052000F0E6
:1002D000ADFD0120B84908820420B64908712FE01D
:1002E0000A2000F0A3FDB3480089401CB1490881F1
:1002F00008460089C82821DB00200881AE49088112
:10030000052000F093FD0020AB494881052000F056
:100310008DFD0020A8498881052000F087FD00E0C0
:100320000DE00020A449C881052000F07FFD0020D9
:10033000A14908829F4908719F49088400E000BFD5
:1003400000BF10BD70B501F0B2F99A49C861084606
:10035000C0698969401A9749C8610846C069002880
:100360002BDD9549C88E03F0D8FA05469149C86936
:1003700003F0CAFA0646294603F088FA044603F059
:10038000D1FA8C49C8610846808B08820846008AE9
:10039000642148438849498F90FBF1F085494882A0
:1003A0000846C069C989884203DD012081498871F6
:1003B00006E000207F49887102E000207D49C86185
:1003C00070BD10B501F073F97A498861012000F021
:1003D0002DFD00207749088248827749888410BD26
:1003E00010B57448C07806280CD2DFE800F00B0383
:1003F0000C86EFE0FFF7E5FF01206F49088402203B
:100400006C49C87016E16B48407900283DD06948B6
:100410008078401C6749887008468078042817DB7C
:100420000020C870087008814871634908846149D8
:100430004978614A22F811001046408C5D494A789B
:100440000121914008435C4948840120C88353E05E
:100450005948408C57494A780121914008435649F0
:10046000488454484078401C5249487008464078B7
:10047000042801DB0020487003204E49C870012089
:1004800049784D4A22F8110036E000204949887029
:10049000012048710320C870474890F8220000F0FE
:1004A000010000B3444890F8220000F00200B0B10F
:1004B000414890F8220000F0040060B13E4890F8F6
:1004C000220000F0080010B1002048700EE0032068
:1004D000384948700AE002203649487006E0012099
:1004E0003449487002E00020324948700120314907
:1004F0004978314A22F8110000BFFFF723FF2D4849
:10050000807908B32C48C08C2B4988840420294961
:10051000C870C8200881002048714978264A22F80E
:100520001100012123484078001D22F810101046C8
:10053000408C20494A780121914088431E494884D3
:1005400000201C49887140E01A48408A1A49888472
:100550001848008A1749898A884207DB1548008AAB
:100560001449898A401A1349C88206E01148808AD2
:100570001049098A401A0F49C8820E48008A0D495D
:1005800088820846C08A012819DC08460089401C78
:10059000088108460089642814DB00200881497816
:1005A000054A22F8110002200249C8700AE02CE036
:1005B00000040040200000202201002006E000206E
:1005C000F64908810A2000F031FC33E0F348008945
:1005D000401EF24908810A2000F028FCEF480089FB
:1005E000052811DC0021ED484078001DEC4A22F876
:1005F0001010012000F01AFC0120E9490882C820EF
:10060000E64908810520C87014E0E4480089401ECE
:10061000E24908810A2000F009FCE0480089052829
:1006200007DC0020DE4908820884DC490870088164
:10063000C87000BF00BF10BD10B5D848C0780628EC
:100640000CD2DFE800F0F7030C62C3E2FFF7B9FE5B
:100650000120D34908840220D049C870EAE0CF487D
:100660004079D0B1CD488078401CCC4988700020BA
:10067000C870087008814871C9490884C749497819
:10068000C74A22F811001046408CC4494A7801211B
:1006900091400843C249488436E00020BF49887031
:1006A000012048710320C870BD4890F8220000F076
:1006B000010000B3BA4890F8220000F00200B0B187
:1006C000B74890F8220000F0040060B1B44890F8F8
:1006D000220000F0080010B1002048700EE0032056
:1006E000AE4948700AE00220AC49487006E001209B
:1006F000AA49487002E00020A84948700120A74993
:100700004978A74A22F8110000BFFFF71BFEA34853
:10071000807908B3A248C08CA149888404209F49ED
:10072000C870C82008810020487149789C4A22F886
:100730001100012199484078001D22F81010104640
:10074000408C96494A7801219140884394494884D5
:1007500000209249887138E09048408A9049888406
:100760008E48008A8D49898A884207DB8B48008A37
:100770008A49898A401A8949C88206E08748808A5E
:100780008649098A401A8549C8828448008A834973
:1007900088820846C08A012811DC08460089401C6E
:1007A00008810846008964280CDB0020088149780C
:1007B0007B4A22F8110002207849C87002E000202C
:1007C000764908810A2000F031FB33E07348008944
:1007D000401E724908810A2000F028FB6F480089FA
:1007E000052811DC00216D484078001D6C4A22F874
:1007F0001010012000F01AFB012069490882C8206E
:10080000664908810520C87014E064480089401ECC
:10081000624908810A2000F009FB60480089052828
:1008200007DC00205E49088208845C490870088162
:10083000C87000BF00BF10BD10B10021574A5170F1
:100840000021564A117091701181D170117151714E
:100850009171D181118251829182D1829161D16154
:10086000704710B5014600224D4B1A805A809A807D
:10087000DA801A815A819A81DA811A825A829A829E
:10088000DA821A835A835A831A849A84DA840A226F
:10089000A3F84220A3F8442089B10022DA835A84C5
:1008A0001A85002009E03F4A32F8103000F11502A5
:1008B0003B4C24F81230421CD0B20C28F3DB10BDA4
:1008C0003748C08A07286FD2DFE800F08304182C6D
:1008D00040546F000120314908703148408D304943
:1008E000C8840846408D498F4843642190FBF1F04D
:1008F0002B49098F401A2949C8816BE002202749FA
:1009000008702748808D2649C8840846808D498F05
:100910004843642190FBF1F02149098F401A1F4997
:10092000C88157E003201D4908701D48C08D1C492F
:10093000C8840846C08D498F4843642190FBF1F07C
:100940001749098F401A1549C88143E0042013490B
:1009500008701348008E1249C8840846008E498FDB
:100960004843642190FBF1F00D49098F401A0B496F
:10097000C8812FE00520094908700948408E0849C0
:10098000C8840846408E498F4843642190FBF1F0AB
:100990000349098F401A0149C8811BE0200000204B
:1009A000220100204000002013E00620F7490870D3
:1009B000F748808EF649C8840846808E498F4843A0
:1009C000642190FBF1F0F249098F401AEF49C88188
:1009D00000E000BF00BF704710B5002409E004F13B
:1009E0001500EB4931F81000EA4921F81400601CA9
:1009F000C4B20C2CF3DB0D21E64800F099FC10BDCD
:100A000010B500240120FFF717FF0D21E14800F089
:100A10007FFCE048008B47F26371884230D064204D
:100A2000DC490880C82048804FF4967088804FF4D5
:100A3000C870C8804FF4FA7008814FF4167048816E
:100A40004FF4D17088810020C881642008820A2078
:100A50004882002088820420C88247F2637008839D
:100A60000D21CC4800F064FC0D21CA4800F050FC78
:100A7000C848008B47F26371884202D1012400E02C
:100A8000012414B10120FFF7ECFE204610BD09201F
:100A900000F0E5FB482000F0ADF900F09BFA00F013
:100AA000F1FD00F03BFE41F61F4140F2E730FFF759
:100AB00075FB4FF4E13000F067FCFFF7A1FF92E116
:100AC000B548008800284FD00A2000F093FEB049B6
:100AD000A1F844000B2000F08DFEAD49A1F84200C2
:100AE0000846B0F8440006B20846B0F8400004B228
:100AF0000846B0F8420005B2601C854217DD084682
:100B0000408A88B9A1484089401CA04948810846CC
:100B10004089C8280BDB032E02DB01209C49488258
:100B200000209A49488102E0002098494881601ECF
:100B3000A84214DD9648408A01280DD19348408987
:100B4000401C9249488108464089C82807DB00209C
:100B500048818F49488202E000208C494881012069
:100B600000F064F900F058FD8948408B20B1FFF790
:100B700033FF0020864948838548008B98B184481C
:100B8000008C30B902208249088401207F49087115
:100B900006E07F48008C022802D101207C4988822F
:100BA00000207B4908837A48C08AD0B17748007812
:100BB00060B1764800787649C98A884203D101201D
:100BC000734988820AE0FFF77BFE07E07048008CDB
:100BD00020B9FFF775FE01206C49C87000206C49F0
:100BE000C8826B48808A28B10020FFF73AFE0020B7
:100BF000FFF722FE6648C08B10B100206349C87021
:100C00006248C07838B16248C08F10B1FFF714FD58
:100C100001E0FFF7E5FB5D48007908B1FFF7F6FA60
:100C20005B480088B0BB5A484088A0BB5848008940
:100C3000B8B95748408948B94FF4007057494861DE
:100C4000401057490860C000086049E04FF4007048
:100C500052490861401052490860C000091F0860ED
:100C60003EE04B48408950B94FF400704B49486111
:100C700040104B49091F0860C000086030E04FF485
:100C8000007046494861401045490860C000091F8E
:100C9000086025E00CE0FFE74FF400703F49486131
:100CA00040103F49091F0860C000091D086017E097
:100CB0003748408848B94FF40070384908614010FF
:100CC00037490860C00008600AE04FF400703349FB
:100CD000086140103249091F0860C000091D086002
:100CE0002B488088B0BB2A48C088A0BB2848808990
:100CF000C0B92748C08948B94FF4805028490860D6
:100D0000C000086040112549486154E04FF480500C
:100D10002349091F0860C000091D086040111F49D0
:100D2000086148E01A48C08950B94FF480501C4906
:100D30000860C000091F08604011184908613AE0C6
:100D40004FF4805016490860C000086040111349F4
:100D5000086130E00BE0FFE74FF480501049086075
:100D6000C000091F086040110C49486123E0084891
:100D7000C088B8B94FF480500949091F0860C00005
:100D8000091D086040110549486114E02000002059
:100D90002201002040000020080000200010014037
:100DA000140801404FF480500F490860C0000860EB
:100DB00040110E4948610E48008A20B14FF400608E
:100DC0000A49086103E04FF4006008494861084897
:100DD000408A20B14FF480500449086103E04FF489
:100DE0008050024948616BE6100801400010014044
:100DF000220100204FF0E021096921F004014FF0A9
:100E0000E0221161C21700EB5272C2F3C702234BFA
:100E10001A701946097801EB4102C2EBC1114FF675
:100E2000FF7202EAC1011E4A1180704701461C4A46
:100E300012884A434FF0E0235A6100229A6101224E
:100E40001A6100BF4FF0E022106900F001021AB1F0
:100E500000F48032002AF5D000224FF0E0231A611E
:100E60009A61704701460D4A12784A434FF0E023D9
:100E70005A6100229A6101221A6100BF4FF0E022FC
:100E8000106900F001021AB100F48032002AF5D096
:100E900000224FF0E0231A619A61704700000020A1
:100EA0000200002000BF704700BF464A128802F0CF
:100EB0004002002AF9D0C2B2424B1B1D1A80704773
:100EC00010B586B00446012144F2040001F030F868
:100ED0004FF40070ADF8140003208DF816001820B0
:100EE0008DF8170005A9384800F018FD4FF4806010
:100EF000ADF8140004208DF8170005A9324800F061
:100F00000DFD25208DF8000002208DF80100032042
:100F10008DF8020001208DF80300684600F033FED2
:100F200001940020ADF80800ADF80A00ADF80C00FF
:100F3000ADF810000C20ADF80E0001A9214801F019
:100F4000BCFA012240F225511E4801F030FB01217C
:100F50001C4801F020FB06B010BD70B504460D46DC
:100F600016E000BF8021174801F0D4FB0028F9D01B
:100F70002178144801F077FB00BF4021114801F0AF
:100F8000C9FB0028F9D040210E4801F0CCFB641CBD
:100F9000281EA5F10101CDB2E3D170BD10B540F21C
:100FA0002551084801F0C2FB58B1064801F05FFB2B
:100FB0000649074A1288885405480088401C04499D
:100FC000088010BD00380140000801405A00002090
:100FD0000800002008B50121084600F0A9FF012102
:100FE000194800F06CFD0121142000F0A1FF4FF41E
:100FF0001940ADF8000003208DF8020010208DF894
:1010000003006946114800F089FC4FF4F050ADF838
:10101000000069460E4800F081FC4FF400700C4956
:1010200048614010094914310860C0000860400060
:101030000860C000086040110549486140004861EF
:101040004000486108BD0000000230000008014077
:1010500000100140A34A0A400243A34B1A607047A4
:101060000146072323EA010212029F4B1B1D186849
:101070004FF6FF0318409D4B184310439A4B1B1D1E
:10108000186070472DE9F0410746884614461D4612
:101090002846FFF7E5FFC5F1040007FA00F60F2028
:1010A000284100EA0800064306F00F06E21704EBA9
:1010B000D2625211920002F1E022D2F800212146C0
:1010C000E31704EBD3635B11A4EB431C012303FA86
:1010D0000CF31A432046E31704EBD3635B119B0028
:1010E00003F1E023C3F800218148005D40EA0610C7
:1010F0007F490855BDE8F08170B504460B46CE1710
:1011000001EB9676C6F38700CE1701EB9676B61004
:10111000A1EB8606B606350E764B9B6943F00103BC
:10112000744EB3614FEAB63353F820300F26AE4009
:10113000B343714E46F82030334653F8203004FA5A
:1011400005F61E436C4B43F820606C4B1B68012670
:101150008E403343694E336002F0010343B1674B65
:101160000C331B6801268E403343644E0C363360CB
:1011700002F0020343B1614B08331E6801238B4028
:101180001E435E4B08331E6070BD00B500205949F8
:101190000861C8601420486100208861C861084661
:1011A000006840F001000860084640685449084063
:1011B0005049486008460068524908404D49086057
:1011C0000846006820F4802008600846406820F443
:1011D000FE0048600020886000214FF00060FFF7AB
:1011E00039FF00BD10B540480830006840F00400E9
:1011F0003D49083108603F48C06940F080503D4992
:10120000C8614148406840F480703F4948600846E2
:10121000006840F0040008600846006840F00200E2
:101220000860FEF78FFF10BD3048001D2E49091DD4
:1012300008607047014649062E4A926942F0010251
:101240002C4B9A612C4A083A526822F0E0622A4BF1
:10125000083B5A601A4652680A435A60704730B5D4
:1012600004460025FFF791FF2248006840F48030D3
:101270002049086000BF1F480068400C0028FAD0D1
:101280004FF480601B494860A01EC4B20846406805
:1012900040EA844048600846406840F48030486036
:1012A0001A48006840F03200184908601148006888
:1012B00040F080700F49086000BF0E480068400E83
:1012C0000028FAD00B48406840F002000949486005
:1012D00005E008484068C0F3870505F00305022DC6
:1012E000F7D130BD80FFFF1F08ED00E00000FA05D8
:1012F00000E400E00010024008000140000401404A
:101300000000FFF8FFFFF6FE0070004000200240E2
:1013100010B502460B461B4903E031F8020B22F8D8
:10132000020B181EA3F10104A3B2F6D1012010BDD7
:101330002DE9F04104460D46124F02F030F83846D0
:1013400002F074F80646042E04D002F02EF80020B5
:10135000BDE8F0810CE02188384602F02AF9064603
:10136000042E03D002F021F80020F1E7BF1CA41CDA
:10137000281EA5F101018DB2EDD102F016F8012071
:10138000E6E7000000F0000810B504462046FFF72D
:1013900097FD10BDF0B502460C46FF25FF2309E07E
:1013A00012F8016B86EA0501B04E765C86EA030509
:1013B000AF4E735C261EA4F10107FCB2F0D143EAE4
:1013C0000520F0BD232902DAAA4A22F8110070474D
:1013D0002DE9F04104460D46681C205C615D00EB80
:1013E000012087B229462046FFF7D4FF80464745B3
:1013F00001D1012600E000263046BDE8F0812DE94C
:10140000F0419D488179FFF7E3FFC01D002850D0CF
:101410009948007948B198480079002101EA0020F4
:10142000954949790843C5B201E093484579924806
:10143000807850B1904880784FF47F4101EA0020D5
:101440008D49C97840EA010601E08B48C67800243E
:1014500016E0072000EB44008749085C4FF47F4109
:1014600001EA0020082101EB4401834A515C40EA73
:101470000108301981B24046FFF7A4FF601CC4B2D6
:10148000AC42E6DB002405E07B48005D7B49085563
:10149000601CC4B2062CF7DB06217848FFF77AFF00
:1014A0000746380A75498871CF7108217348FFF7DC
:1014B00054FDBDE8F0812DE9F04106216E48FFF7AB
:1014C00087FF00283AD06C48007950B16A4800790B
:1014D0004FF47F4101EA00206749497940EA01055C
:1014E00001E0654845796448807850B16248807869
:1014F0004FF47F4101EA00205F49C97840EA0106C4
:1015000001E05D48C67831462846FFF75BFF0024BE
:1015100005E05948005D59490855601CC4B2062CC5
:10152000F7DB06215548FFF735FF0746380A5349D0
:101530008871CF7108215148FFF70FFDBDE8F08198
:101540000146232901DB002002E04A4A32F811005B
:1015500070472DE9F04106214748FFF739FF002881
:1015600058D04548007948B143480079002101EA44
:101570000020414949790843C5B201E03E48457918
:101580003D48807850B13C4880784FF47F4101EA73
:1015900000203949C97840EA010701E03648C77898
:1015A00035480078354908703348407848706806F7
:1015B000000E8870002410E0391988B2FFF7C0FFD0
:1015C0000646300A032101EB44012C4A5054042101
:1015D00001EB44015654601CC4B2AC42ECDB27481A
:1015E0008078C01CC1B22548FFF7D4FE80464FEA80
:1015F000182122488078C01C204A11541046807857
:10160000001D02F8008010468078401DC1B21046CF
:10161000FFF7A3FCBDE8F08110B51748007801285A
:1016200001D000241DE014484078032804D0062887
:1016300005D0102809D105E0FFF78BFF0FE0FFF779
:101640003AFF0CE0FFF7DBFE09E080200A49487012
:101650000120887003210848FFF77FFC00BF00BF0E
:101660000124002006490880204610BDFE390008EC
:10167000FE3A0008220100205A000020BE0000208F
:101680000800002010B50121082000F051FC21487D
:10169000006820F07F401F4908600846006840F05D
:1016A0000340086010BD1C490968C8B2704770B596
:1016B00080201849103108600120FFF7D3FB40203B
:1016C000144914310860002400BFFFF7ECFF002824
:1016D000FBD100250CE040200E4910310860640069
:1016E000091D0860FFF7DFFF00B1641C681CC5B26C
:1016F000182DF0DB402007491031086084F4000405
:101700000120FFF7AFFB402002491431086020465A
:1017100070BD0000000C01401C81214200B587B063
:1017200001214FF4047000F003FC4FF4004000F07E
:1017300063FB0320ADF8040000208DF8070001A929
:101740003F4800F0EBF83F4800F056FC00200290C4
:101750008DF80C008DF80D004FF4602004900020EF
:10176000059001208DF8180002A9364800F071FCA0
:101770000121344800F099FC324800F0B8FC00BF69
:10178000304800F0B9FC0028FAD12E4800F0BEFC29
:1017900000BF2C4800F0BFFC0028FAD107B000BD04
:1017A00010B50446032301222146264800F0E9FC37
:1017B0000121244800F0B9FC00BF0221214800F0BB
:1017C00006FE0028F9D01F4800F042FD10BD70B59C
:1017D00006460024002508E03046FFF7E1FF0444F8
:1017E0000120FFF723FB681CC5B2082DF4DBC4F30E
:1017F000CF0070BD70B506463046FFF7E8FF0546DE
:1018000011480088A84202DC6FF0090415E00024AA
:101810000DE00D4830F81400A84206DB0A49601CB0
:1018200031F81000A84200DC03E0601C04B2312C47
:10183000EFDB00BFA4F1090004B2204670BD000038
:101840000010014000240140FE3B000810B5044692
:10185000C649601A8C422FD009DCC548204480B1AB
:10186000B0F5806F16D0B0F5006F4AD11BE0B0F52F
:10187000806F2AD0B0F5006F30D0B0F5406F40D106
:1018800035E00121042000F06DFB0021042000F070
:1018900069FB37E00121082000F064FB00210820EB
:1018A00000F060FB2EE00121102000F05BFB002126
:1018B000102000F057FB25E00121202000F052FB12
:1018C0000021202000F04EFB1CE00121402000F010
:1018D00049FB0021402000F045FB13E0012180205E
:1018E00000F040FB0021802000F03CFB0AE00121D9
:1018F000080200F037FB00214FF4807000F032FB4B
:1019000000E000BF00BF10BD10B50121084600F087
:1019100029FB0021012000F025FB10BD2DE9F0413D
:10192000024600250026002000230024002791F80D
:1019300003C00CF00F0591F803C00CF0100CBCF1C3
:10194000000F03D091F802C04CEA050591F800C0E1
:10195000BCF1000F31D0146800202BE04FF0010CD7
:101960000CFA00F3B1F800C00CEA03069E4220D145
:1019700083004FF00F0C0CFA03F7BC4305FA03FC8D
:101980004CEA040491F803C0BCF1280F06D14FF0D3
:10199000010C0CFA00FCC2F814C00AE091F803C074
:1019A000BCF1480F05D14FF0010C0CFA00FCC2F855
:1019B00010C0401C0828D1D31460B1F800C0BCF19D
:1019C000FF0F34DD546800202EE000F1080C4FF0CA
:1019D000010808FA0CF3B1F800C00CEA03069E42B5
:1019E00021D183004FF00F0C0CFA03F7BC4305FA2A
:1019F00003FC4CEA040491F803C0BCF1280F05D1A4
:101A000000F1080C08FA0CF8C2F8148091F803C031
:101A1000BCF1480F07D100F1080C4FF0010808FA9B
:101A20000CF8C2F81080401C0828CED35460BDE8E2
:101A3000F0814FF6FF710180022181700421C17095
:101A400070470246002093680B400BB1012000E074
:101A5000002070470146886880B270470246002027
:101A6000D3680B400BB1012000E000207047014615
:101A7000C86880B2704701617047416170470AB120
:101A8000016100E041617047C16070474FF48032EE
:101A90000A4382618161826182698269704702467C
:101AA0000020344B18684FF68073184040EA02104B
:101AB0000843304B186070472F49C8617047F0B534
:101AC0000A4600230024002100252A4E7168C0F335
:101AD000034583B200F44016B6F5401F08D121F04B
:101AE0007061244E766826F07066224F7E6012E0A8
:101AF00000F48016B6F5801F06D1032606FA05F419
:101B0000A14341F0706106E0460D360103FA06F686
:101B1000B14341F0706122B1460D360103FA06F679
:101B20003143144E7160F0BD30B500228B071C0F9D
:101B30000F2303FA04F20F4B08338C1053F82430B0
:101B400093430C4C08348D1044F8253023468C10F8
:101B500053F824308C07240F00FA04F42343054C77
:101B600008348D1044F8253030BD000000140140C9
:101B700000F8FEBF0000014000002042314901434F
:101B8000314A1160704770B5002100230F22C478DC
:101B900004B32D4C246804F4E064C4F5E064210A25
:101BA000C1F10403CA40447804FA03F18478144074
:101BB00021430901254C0678A155047804F01F053E
:101BC0000124AC4005786D11AD0005F1E025C5F8A4
:101BD000004109E0047804F01F050124AC401C4DCD
:101BE0000678761145F8264070BD1A4A0A4002432D
:101BF000154B1B1F1A60704739B1134A121D12682A
:101C00000243114B1B1D1A6006E00F4A121D126899
:101C100082430D4B1B1D1A607047042808D14FF0FA
:101C2000E021096941F004014FF0E022116107E071
:101C30004FF0E021096921F004014FF0E022116129
:101C4000704700000000FA050CED00E000E400E041
:101C500080E100E080FFFF1FDE48006840F00100E7
:101C6000DC49086008464068DB490840D9494860BB
:101C700008460068D9490840D64908600846006807
:101C800020F4802008600846406820F4FE00486088
:101C9000002088607047CF49096821F48031CD4A1F
:101CA00011601146096821F480211160B0F5803F70
:101CB00003D0B0F5802F0ED106E0C649096841F483
:101CC0008031C44A116007E0C249096841F4A0218B
:101CD000C04A116000E000BF00BF704710B5014668
:101CE0000022002300204A11012A02D1B94C2368A6
:101CF00006E0022A02D1B74C236A01E0B54C636AC0
:101D000001F01F02012494401C400CB1012000E0AE
:101D1000002010BD38B5002000900024002500BF31
:101D20003120FFF7DBFF05460098401C00901DB9ED
:101D30000098B0F5A06FF3D13120FFF7CFFF08B1C5
:101D4000012400E00024204638BD01460020A14ABD
:101D5000106820F0F80040EAC10010607047A04908
:101D600008607047024600209A4B586820F47C10A7
:101D700042EA01031843974B586070479849086638
:101D8000704701460020934A506820F00300084342
:101D9000506070478F48406800F00C007047014663
:101DA00000208C4A506820F0F000084350607047D3
:101DB00001460020874A506820F4E06008435060E4
:101DC000704701460020834A506820F4605040EA82
:101DD000C1005060704729B17E4A527A02437D4B60
:101DE0005A7204E07B4A527A82437A4B5A727047A5
:101DF0007B49D8310860704701460020754A506819
:101E000020F440400843506070470021714A20325E
:101E10001170704A82F82010012802D004280AD1DB
:101E200004E001216B4A2032117005E00521694A66
:101E30002032117000E000BF00BF704769490860A0
:101E400070476449096A0143624A116270476549F3
:101E500044390860704730B5002100220024002377
:101E60005C4D6D6805F00C0121B1042905D00829ED
:101E700023D105E05C4D056022E05B4D05601FE06D
:101E8000544D6D6805F47012022505EB9242514DD8
:101E90006D6805F480341CB9544D554305600BE062
:101EA0004C4D6D6805F400351DB1504D554305602E
:101EB00002E04D4D5543056002E04B4D056000BF0B
:101EC00000BF444D6D6805F0F0010909484D6B5C99
:101ED0000568DD4045603F4D6D6805F4E061090A25
:101EE000434D6B5C4568DD4085603A4D6D6805F497
:101EF0006051C90A3E4D6B5C4568DD40C560354D9B
:101F00006D6805F44041890B3A4D6B5CC568B5FBC3
:101F1000F3F5056130BD29B12E4A526902432D4BBC
:101F20005A6104E02B4A526982432A4B5A61704736
:101F300029B1284A92690243264B9A6104E0254A56
:101F400092698243234B9A61704729B1214AD26931
:101F50000243204BDA6104E01E4AD26982431D4BE2
:101F6000DA61704729B11B4AD2680243194BDA6023
:101F700004E0184AD2688243164BDA60704729B1F0
:101F8000144A12690243134B1A6104E0114A1269A0
:101F90008243104B1A6170471249403908607047FC
:101FA0000F49C86470470B49C87170470948406AB7
:101FB00040F0807007494862704701460020054A9A
:101FC00092680A400AB1012000E0002070470149F0
:101FD00088727047001002400000FFF8FFFFF6FE15
:101FE000000042428004424200127A0000093D0093
:101FF0000A0000201A00002010B50446F7482044CB
:1020000030B1B0F5806F0DD0B0F5C05F1ED113E0D8
:1020100001214802FFF7A6FF00214FF40070FFF7EF
:10202000A1FF14E001218802FFF79CFF00214FF47B
:102030008060FFF797FF0AE00121C803FFF792FFD6
:1020400000214FF40040FFF78DFF00E000BF00BF0C
:1020500010BD30B50246002000235068E04C2040FF
:102060000D790C6844EA0524204350609068DD4CEB
:102070002040D1E902542C434D7944EA45042043E1
:102080009060D06A20F470000C7C641E1C43E3B2A4
:1020900040EA0350D06230BD0021016001714171FE
:1020A0008160C16001210174704721B1826842F0F2
:1020B0000102826003E0826822F0010282607047C0
:1020C00021B1826842F48072826003E0826822F467
:1020D00080728260704710B50023CBB21AB1446899
:1020E0001C43446002E044689C43446010BD816826
:1020F00041F0080181607047014600208A6802F0C3
:1021000008020AB1012000E000207047816841F018
:10211000040181607047014600208A6802F00402D1
:102120000AB1012000E00020704721B1826842F42A
:10213000A002826003E0826822F4A00282607047FD
:10214000014600208A6802F480020AB1012000E002
:102150000020704710B50A4600210023416821F491
:102160006041531E41EA4331416010BD21B14268D4
:1021700042F40062426003E0426822F4006242607E
:102180007047F0B504460D4600200021092D11DDF1
:10219000E068A5F10A0606EB4607072606FA07F1EE
:1021A0008843A5F10A0606EB460603FA06F1084342
:1021B000E0600CE0206905EB4507072606FA07F109
:1021C000884305EB450603FA06F108432061072A18
:1021D0000FDA606B561E06EB86071F2606FA07F11C
:1021E0008843561E06EB860605FA06F1084360632F
:1021F00022E00D2A0FDA206BD61F06EB86071F267A
:1022000006FA07F18843D61F06EB860605FA06F1A3
:102210000843206310E0E06AA2F10D0606EB860792
:102220001F2606FA07F18843A2F10D0606EB860683
:1022300005FA06F10843E062F0BD21B1826842F47C
:102240008012826003E0826822F48012826070470C
:102250000146C86C80B2704763480068704721B17E
:10226000426842F48062426003E0426822F4806285
:102270004260704721B1426842F48052426003E0FC
:10228000426822F48052426070470A460021816809
:1022900021F4E04111438160704721B1826842F42A
:1022A0000042826003E0826822F40042826070474C
:1022B00021B1826842F40212826003E0826822F453
:1022C000021282607047014600208A6802F4001200
:1022D0000AB1012000E000207047F0B50446154621
:1022E000002000220026092911DDE068A1F10A077B
:1022F00007EB470C072707FA0CF29043A1F10A07F6
:1023000007EB470703FA07F21043E0600CE020698F
:1023100001EB410C072707FA0CF2904301EB410750
:1023200003FA07F210432061A06BC0F30156EF1CC3
:1023300006F1010CA7EB0C0707EB870C1F2707FA28
:102340000CF29043EF1C06F1010CA7EB0C0707EB16
:10235000870701FA07F21043A063F0BD10B50A46E3
:1023600000210023816B21F44011531E41EA0351E7
:10237000816310BD4250704702465018806A80B297
:1023800070470A4600214168184B194011434160CB
:1023900070474162826270470A460021416821F01D
:1023A0001F0111434160704740B10F49443909682A
:1023B00041F400010C4A443A116007E00A494439EB
:1023C000096821F40001084A443A11607047024646
:1023D000002013680B405BB101200AE000DCFEBF67
:1023E000FFFEF0FFFDF7F1FF4C240140FFFD3FFF32
:1023F00000207047CA430260704770B50246002053
:10240000002300240B125568CEB205EA06041568B5
:102410001D4015B10CB1012000E0002070BD00226C
:102420000A12D3430360704710B50446D749601AB7
:102430008C422BD006DCD648204498B1B0F5806F92
:1024400038D119E0B0F5806F2AD0B0F56C4F31D19A
:1024500001218803FFF786FD00214FF48040FFF73C
:1024600081FD28E001214804FFF789FD00214FF498
:102470000030FFF784FD1EE001218804FFF77FFD97
:1024800000214FF48020FFF77AFD14E00121C804F9
:10249000FFF775FD00214FF40020FFF770FD0AE003
:1024A00001210805FFF76BFD00214FF48010FFF7B5
:1024B00066FD00E000BF00BF10BD2DE9F04786B00B
:1024C00005460E460024A24600BF00BF00272F4647
:1024D0002C8A4CF6FF700440F08804432C82AC89AF
:1024E0004EF6F3100440B0883189084371890843DF
:1024F0000443AC81AC8A4FF6FF400440B0890443EA
:10250000AC8201A8FFF7A7FCA248874202D1DDF800
:1025100010A001E0DDF80CA00AEBCA0000EB0A10E5
:1025200031688900B0FBF1F86420B8FBF0F00401D9
:102530002009642101FB1089322000EB0910B0FB57
:10254000F1F000F00F0004432C8106B0BDE8F087E5
:102550004FF4E131016000218180C18001810C21B3
:10256000418100218181704710B502460020108A08
:102570004FF2FF0318400B884C8823438C88234379
:10258000CC8823431843108210BD00210180418074
:102590008180C180704721B1828942F400528281DA
:1025A00004E082894DF6FF731A4082817047F0B5CE
:1025B000034600240026002500201846C1F34214DB
:1025C00001F01F06012707FA06F5012C01D10C3096
:1025D00004E0022C01D1103000E014301AB1076879
:1025E0002F43076002E00768AF430760F0BD1AB1F0
:1025F000838A0B43838202E0838A8B438382704702
:10260000028A4FF6F0731A400282028A0A4302825B
:10261000704782894FF2FF731A40828182890A4390
:102620008281704721B1828942F00202828104E0F6
:1026300082894FF6FD731A4082817047028A4FF6F5
:10264000DF731A400282028A0A430282704721B174
:10265000028A42F48042028204E0028A4BF6FF734F
:102660001A4002827047C1F3080282807047014617
:102670008888C0F308007047818941F00101818199
:102680007047028BD2B20283028B42EA012202839C
:102690007047028B02F47F420283028B0A4302835B
:1026A000704721B1828A42F02002828204E0828A4D
:1026B0004FF6DF731A408282704721B1828A42F05E
:1026C0001002828204E0828A4FF6EF731A408282FF
:1026D000704721B1828A42F00802828204E0828A35
:1026E0004FF6F7731A4082827047828A4FF6FB7367
:1026F0001A408282828A0A438282704721B1828A8A
:1027000042F00202828204E0828A4FF6FD731A4090
:10271000828270470246002013880B400BB10120D3
:1027200000E000207047CA430280704770B502463F
:102730000B460024002100250020C3F3421503F0BE
:102740001F01012606FA01F1012D02D196893140BF
:1027500006E0022D02D1168A314001E0968A31400E
:102760001C12012606FA04F41688344011B10CB18B
:10277000012000E0002070BD10B5002200230A12E5
:1027800001249440A3B2DC43048010BD004C0040FF
:1027900000BCFFBF0038014010B50446F749601A7D
:1027A0008C4245D00CDCB4F1804F1DD0F44820445D
:1027B00018B3B0F5806F29D0B0F5006F54D12EE07A
:1027C000B0F5806F3DD0B0F58E3F03D0B0F5923FAD
:1027D0004AD13FE00121C802FFF7C4FB00214FF4BA
:1027E0000060FFF7BFFB40E001210846FFF7C7FB91
:1027F00000210120FFF7C3FB37E001210220FFF792
:10280000BEFB00210220FFF7BAFB2EE001210420CD
:10281000FFF7B5FB00210420FFF7B1FB25E0012104
:102820000820FFF7ACFB00210820FFF7A8FB1CE005
:1028300001211020FFF7A3FB00211020FFF79FFBD1
:1028400013E001212020FFF79AFB00212020FFF751
:1028500096FB0AE001214803FFF784FB00214FF4B7
:102860000050FFF77FFB00E000BF00BF10BD0288F3
:1028700002F08F020280CA884B881A4303881A43E9
:1028800002808A8882850A880285BE4A904202D0E8
:10289000BD4A904201D10A7A0286012282827047A3
:1028A00070B5002400220023058C4FF6FE763540DB
:1028B0000584028C8388048B4FF68F752C400D881D
:1028C0002C43751E2A400D892A434D882A43CD8802
:1028D0008586AC4DA84202D0AB4DA84213D14FF62D
:1028E000F7752A404D892A434FF6FB752A408D889B
:1028F0002A4347F6FF652B4047F6FF552B408D894D
:102900002B43CD892B4383800483028470BD70B533
:10291000002400220023058C4FF6EF763540058415
:10292000028C8388048B48F6FF752C400D884FF687
:10293000FF7606EA05252C434FF6DF752A400D8900
:1029400006EA05152A434D8806EA05152A43CD886F
:1029500005878C4DA84202D08B4DA8421DD14FF661
:102960007F752A404D894FF6FF7606EA05152A4302
:102970004FF6BF752A408D8806EA05152A4347F6AB
:10298000FF352B4047F2FF752B408D8906EA850500
:102990002B43CD8906EA85052B438380048302847B
:1029A00070BD70B5002400220023058C4FF6FF6631
:1029B00035400584028C8388848B4FF68F752C40BC
:1029C0000D882C434FF6FF552A400D894FF6FF76B0
:1029D00006EA05252A434D8806EA05252A43CD88BF
:1029E0008587684DA84202D0674DA8421DD14FF29D
:1029F000FF752A404D894FF6FF7606EA05252A43E2
:102A00004FF6FF352A408D8806EA05252A4346F60B
:102A1000FF752B4045F6FF752B408D8906EA05159D
:102A20002B43CD8906EA05152B43838084830284DA
:102A300070BD70B5002400220023058C4EF6FF7691
:102A400035400584028C8388848B48F6FF752C40C2
:102A50000D884FF6FF7606EA05252C434DF6FF75E7
:102A60002A400D8906EA05352A434D8806EA0535D0
:102A70002A43CD88A0F84050424DA84202D0424D92
:102A8000A84207D1C3F30D038D894FF6FF7606EAFE
:102A900085152B4383808483028470BD828B4FF223
:102AA000FF331A408283828B4FF6FF7303EA0123C0
:102AB0001A4382837047F0B50C4615460021002268
:102AC0000026078C4EF6FF7C07EA0C070784818BF3
:102AD000028C4FF6FF7707EA043640F6FF4739408D
:102AE0004FF6FF7707EA05274FF6FF7C0CEA033C19
:102AF00047EA0C0739434DF6FF773A4046F48057D2
:102B00003A4381830284F0BD828B4FF6F3731A40FF
:102B10008283828B0A4382837047F0B50C46154648
:102B2000002100220026078C4FF6FF6C07EA0C07F5
:102B30000784818B028C4FF6FF7707EA04264FF655
:102B40000C7739404FF6FF7707EA03172F433943D5
:102B50004FF6FF573A4046F480773A438183028428
:102B6000F0BD028B4FF2FF331A400283028B4FF607
:102B7000FF7303EA01231A430283704700100040E9
:102B800000FCFFBF002C014000340140F0B50C46B2
:102B90001546002100220026078C4FF6EF7C07EA3D
:102BA0000C070784018B028C4FF6FF7707EA0416A7
:102BB00040F6FF4739404FF6FF7707EA03373943BE
:102BC0004FF6FF7707EA052739434FF6DF773A409C
:102BD00046F010073A4301830284F0BD028B4FF6A2
:102BE000F3731A400283028B0A4302837047F0B5E5
:102BF0000C46154600210022068C4FF6FE773E401B
:102C00000684018B028C4FF60C7631407E1C06EA5E
:102C100003162E4331437E1E324044F001063243F8
:102C200001830284F0BD70B505460C46208850B97A
:102C30002389A28861882846FFF7D9FFE1882846C2
:102C4000FFF7CCFF25E0208804280AD12389A28839
:102C500061882846FFF79AFFE1882846FFF781FF41
:102C600017E0208808280AD12389A288618828468D
:102C7000FFF753FFE1882846FFF746FF09E0238965
:102C8000A28861882846FFF716FFE1882846FFF7EB
:102C900005FF70BD2DE9F04105460C4600260127D1
:102CA000608808B9022600E00026A088012801D12A
:102CB000022700E001272088A0B92389A288618823
:102CC0002846FFF794FFE1882846FFF787FF23890E
:102CD0003A4631462846FFF759FFE1882846FFF774
:102CE00040FF13E02389A28861882846FFF74EFF42
:102CF000E1882846FFF735FF23893A4631462846C2
:102D0000FFF775FFE1882846FFF768FFBDE8F0810F
:102D10000A884B881A438B881A43CB881A430B893D
:102D20001A434B891A438B891A43A0F844207047F1
:102D30004FF6FF71818000210180C18041800172C6
:102D400070470021018041808180C18001814181E3
:102D50008181C181704700210180418001218180F2
:102D60000021C18001817047002101804180818064
:102D7000C180018141818181704721B1028842F087
:102D80000102028004E0028840F2FE331A40028011
:102D9000704731B1B0F8442042F40042A0F844201A
:102DA00005E0B0F84420C2F30E02A0F844207047BA
:102DB0001AB183890B43838102E083898B4383812A
:102DC00070478182704741EA0203A0F8483070479B
:102DD0001AB183890B43838102E083898B4383810A
:102DE000704701894FF6F8721140018170470A4619
:102DF000002101894FF68F731940114301817047FB
:102E000030B504460D4629462046FFF7F0FF2089DD
:102E100040F00700208130BD2DE9F04104460D4609
:102E200016461F46602D06D13B46012231462046FC
:102E3000FFF7ACFE05E03B46012231462046FFF796
:102E4000D6FE29462046FFF7D2FF208940F0070032
:102E50002081BDE8F08170B50C4600210189C9B21E
:102E600044EA02054FF6FF7606EA03263543294376
:102E7000018170BD2DE9F04105460E461746984682
:102E8000002443463A4631462846FFF7E4FF2C89A2
:102E90004FF6F870044044F007044FF68F7004407A
:102EA00044F070042C81BDE8F081F0B504460D4675
:102EB00016461F463B46324629462046FFF7CBFFC3
:102EC000208940F480402081F0BD018582827047D6
:102ED0000A460021018840F28F33194011430180D6
:102EE0007047F0B50C4615461E460021002200230F
:102EF0000189028B038C4FF6F877394021434FF656
:102F0000FC473A4040F201173A434FF6DD773B4029
:102F10004FF6FF7707EA06172F433B4301810283F1
:102F20000384F0BD0A460021018B4FF68F731940D0
:102F30001143018370470A460021018B48F6FF7355
:102F400019404FF6FF7303EA0223194301837047C8
:102F50000A460021818B4FF68F73194011438183FC
:102F600070470A460021818B48F6FF7319404FF6DF
:102F7000FF7303EA022319438183704721B102885A
:102F800042F08002028004E0028840F27F331A405F
:102F90000280704721B1828842F00402828004E0FE
:102FA00082884FF6FB731A408280704721B1828875
:102FB00042F00802828004E082884FF6F7731A40DC
:102FC0008280704721B1828842F00102828004E051
:102FD00082884FF6FE731A40828070470A460021AD
:102FE000018B4FF6F77319401143018370470A466E
:102FF0000021018B4FF2FF7319404FF6FF7303EA74
:1030000002231943018370470A460021818B4FF642
:10301000F77319401143818370470A460021818B61
:103020004FF2FF7319404FF6FF7303EA022319436F
:10303000818370470A460021018B4FF6FB731940CC
:103040001143018370470A460021018B4FF6FF337D
:1030500019404FF6FF7303EA0223194301837047B7
:103060000A460021818B4FF6FB731940114381837F
:1030700070470A460021818B4FF6FF3319404FF607
:10308000FF7303EA02231943818370470A46002134
:10309000018B4FF67F7319401143018370470A4635
:1030A0000021018BC1F30E014FF6FF7303EA0223E7
:1030B0001943018370470A460021818B4FF67F73C5
:1030C00019401143818370470A460021818BC1F367
:1030D0000E014FF6FF7303EA022319438183704701
:1030E0000A460021018C4FF6FD73194011430184FB
:1030F00070470A460021018C4FF6F77319401143BF
:10310000018470470A460021018C4FF6DF73194095
:103110004FF6FF7303EA02131943018470470A460E
:103120000021018C4FF67F7319404FF6FF7303EABD
:1031300002131943018470470A460021018C4FF69F
:10314000FF5319404FF6FF7303EA0223194301842A
:1031500070470A460021018C4FF2FF7319404FF669
:10316000FF7303EA02231943018470470A460021D2
:10317000018C4DF6FF7319404FF6FF7303EA0233DB
:1031800019430184704710B5038C01248C40A3437C
:103190000384038C02FA01F4A4B22343038410BD18
:1031A00010B5038C04248C40A3430384038C02FADF
:1031B00001F4A4B22343038410BD30B5038C012471
:1031C0008C40A343038409B1082918D100F11803E6
:1031D00003EB61031B684FF68F74234000F1180462
:1031E00004EB6104236000F1180303EB61031B6827
:1031F000134300F1180404EB610423601FE00B1F6C
:10320000C3F34E0400F118031B5948F6FF74234022
:103210000C1FC4F34E0500F1180463510B1FC3F3D8
:103220004E0400F118031B594FF6FF7404EA022400
:1032300023430C1FC4F34E0500F11804635130BD45
:1032400021B1028842F00202028004E0028840F2CA
:10325000FD331A400280704721B1028842F0040217
:10326000028004E0028840F2FB331A40028070477B
:1032700021B1828842F08002828004E082884FF689
:103280007F731A4082807047028840F2F7331A40F9
:10329000028002880A430280704782884FF68F734B
:1032A0001A40828082880A438280704702894FF6E2
:1032B000F8731A40028102890A4302817047028929
:1032C0004FF67F731A40028102890A4302817047D8
:1032D0008184704781857047818670470187704778
:1032E00081877047A0F8401070470288D2B20280F0
:1032F00002880A43028070470146888E7047014663
:10330000088F70470146888F70470146B1F840002A
:1033100070470146888C70470146088D7047024609
:103320000020138A0B400BB1012000E00020704701
:10333000CA430282704730B50246002000230024B1
:10334000158A05EA0103958905EA010413B10CB158
:10335000012000E0002030BDCA4302827047000017
:1033600001460020FB4A106800F038000843106056
:103370007047F849096821F00801F64A11601146C2
:103380000968014311607047F249096821F0100192
:10339000F04A116011460968014311607047EE4818
:1033A000EC494860ED4848607047EA48006940F0E1
:1033B0008000E849086170470420E649C96801F0C7
:1033C000010109B101200EE0E249C96801F00401E0
:1033D00009B1022007E0DF49C96801F0100109B115
:1033E000032000E00420704708B500200090FF2073
:1033F000009002E00098401E009000980028F9D14B
:1034000008BD70B504460425FFF7D6FF054605E064
:10341000FFF7EAFFFFF7D0FF0546641E012D01D13B
:10342000002CF5D104B90525284670BD70B50546B8
:10343000042440F6FF70FFF7E4FF0446042C19D182
:10344000C448006940F00200C2490861084645616D
:10345000006940F04000086140F6FF70FFF7D1FFBF
:103460000446012C06D0BB48006941F6FD710840B6
:10347000B8490861204670BD10B5042440F6FF70BD
:10348000FFF7BFFF0446042C18D1B248006940F092
:103490000400B04908610846006940F04000086136
:1034A00040F6FF70FFF7ADFF0446012C06D0A94897
:1034B000006941F6FB710840A6490861204610BD2D
:1034C00010B5042440F6FF70FFF79BFF0446042C60
:1034D0003BD1A1489F498860A048886008460069A0
:1034E00040F0200008610846006940F04000086193
:1034F00040F6FF70FFF785FF0446042C1CD1954869
:10350000006941F6DF710840924908610846006988
:1035100040F010000861A520914908800F20FFF7B6
:1035200070FF0446012C10D08A48006941F6EF7103
:1035300008408849086108E0012C06D085480069E8
:1035400041F6EF71084083490861204610BD70B50F
:1035500005460E4604240F20FFF753FF0446042CB3
:1035600025D17C48006940F001007A4908612E802D
:103570000F20FFF746FF0446042C0FD1300C688063
:103580000F20FFF73EFF0446012C10D07148006960
:1035900041F6FE7108406F49086108E0012C06D031
:1035A0006C48006941F6FE7108406A49086120468E
:1035B00070BD70B505460E4604240F20FFF721FFAD
:1035C0000446042C13D16348006940F001006149AE
:1035D00008612E800F20FFF714FF0446012C06D04F
:1035E0005C48006941F6FE7108405A49086120466E
:1035F00070BD70B505460E4604240F20FFF701FF8D
:103600000446042C17D154485249886053488860B6
:103610000846006940F0100008612E800F20FFF777
:10362000F0FE0446012C06D04A48006941F6EF71CD
:10363000084048490861204670BD2DE9F04704461E
:103640004FF6FF763746B046B1460425E443E6B26E
:10365000C4F30727C4F307484FEA14690F20FFF7A4
:10366000D0FE0546042D40D13B483A4988603B488E
:1036700088600846006940F010000861FF2E06D0FF
:103680003748083006800F20FFF7BBFE0546042DA3
:1036900008D1FF2F06D032480A3007800F20FFF7ED
:1036A000B0FE0546042D0AD1B8F1FF0F07D02C4813
:1036B0000C30A0F800800F20FFF7A3FE0546042D74
:1036C0000AD1B9F1FF0F07D025480E30A0F80090BD
:1036D0000F20FFF796FE0546012D06D01D48006914
:1036E00041F6EF7108401B4908612846BDE8F087A4
:1036F00070B50546042440F6FF70FFF782FE0446CD
:10370000042C4AD11448134988601448886008463C
:10371000006940F0200008610846006940F0400060
:10372000086140F6FF70FFF76CFE0446042C2BD1B5
:103730000848006941F6DF710840064908610846FB
:10374000006940F01000086165B10020044908805C
:103750000BE000000020024023016745AB89EFCD5C
:1037600000F8FF1FA5204549088040F6FF70FFF7CD
:1037700048FE0446012C10D04148006941F6EF7123
:1037800008403F49086108E0012C06D03C48006928
:1037900041F6DF7108403A490861204670BD2DE9C5
:1037A000F04107460D4616460424364834498860E1
:1037B000354888600F20FFF724FE0446042C1AD1F8
:1037C0002F48006940F010002D49086147EA0500C4
:1037D000304340F0F8002949891C08800F20FFF78A
:1037E00010FE0446012C06D02548006941F6EF7111
:1037F0000840234908612046BDE8F0812048C0699F
:10380000800870471E48006A704700201C49C9693B
:1038100001F0020109B1012000E000207047002002
:103820001749096801F0200109B1012000E00020DA
:10383000704729B1124A12690243114B1A6104E020
:103840000F4A126982430E4B1A61704701460020ED
:10385000012908D10A4AD26902F001020AB1012005
:1038600008E0002006E0064AD2680A400AB10120BA
:1038700000E0002070470249C860704700F8FF1F51
:103880000020024023016745AB89EFCD30B480EAC8
:10389000010202F0004530F0004221F0004013D058
:1038A00090B1C30DD40DC2F31601C0F31600E41A93
:1038B00041F4000140F400027D34914201D3641CC4
:1038C00000E04900002C02DA30BC002070474FF4C1
:1038D00000000023914201D3891A034340084FEAB4
:1038E0004101F7D151B1914202D14FF0004105E0C1
:1038F00002D24FF0010101E06FF0010103EBC4506F
:10390000284430BC00F022B8C10F80EAE0700844BF
:10391000CA079623002100F022B896230022114600
:1039200000F01DB820F00040C10DC0F3160040F4B7
:1039300000007F2901DA00207047962903DCC1F1DD
:103940009601C84070479639884070470029A8BF43
:103950007047401C490008BF20F00100704710B4B8
:10396000B0FA80FC00FA0CF050EA010404BF10BC6D
:10397000704749B1CCF1200421FA04F411FA0CF19A
:1039800018BF012121430843A3EB0C01CB1D4FEAD3
:1039900000614FEA102042BF002010BC704700EBCE
:1039A000C35010440029A4BF10BC7047401C4900FC
:1039B00008BF20F0010010BC70470000064C074D06
:1039C00006E0E06840F0010394E8070098471034EF
:1039D000AC42F6D3FCF7B0FB643C0008843C000822
:1039E00002E008C8121F08C1002AFAD170477047C8
:1039F000002001E001C1121F002AFBD1704700C165
:103A0000814001C0804101C0804100C1814001C0AE
:103A1000804100C1814000C1814001C0804101C09E
:103A2000804100C1814000C1814001C0804100C18E
:103A3000814001C0804101C0804100C1814001C07E
:103A4000804100C1814000C1814001C0804100C16E
:103A5000814001C0804101C0804100C1814000C15E
:103A6000814001C0804101C0804100C1814001C04E
:103A7000804100C1814000C1814001C0804101C03E
:103A8000804100C1814000C1814001C0804100C12E
:103A9000814001C0804101C0804100C1814000C11E
:103AA000814001C0804101C0804100C1814001C00E
:103AB000804100C1814000C1814001C0804100C1FE
:103AC000814001C0804101C0804100C1814001C0EE
:103AD000804100C1814000C1814001C0804101C0DE
:103AE000804100C1814000C1814001C0804100C1CE
:103AF000814001C0804101C0804100C1814000C0BF
:103B0000C101C30302C2C60607C705C5C404CC0C65
:103B10000DCD0FCFCE0E0ACACB0BC90908C8D818D5
:103B200019D91BDBDA1A1EDEDF1FDD1D1CDC14D4E5
:103B3000D515D71716D6D21213D311D1D010F03015
:103B400031F133F3F23236F6F737F53534F43CFC25
:103B5000FD3DFF3F3EFEFA3A3BFB39F9F83828E8D5
:103B6000E929EB2B2AEAEE2E2FEF2DEDEC2CE424A5
:103B700025E527E7E62622E2E323E12120E0A06015
:103B800061A163A3A26266A6A767A56564A46CACE5
:103B9000AD6DAF6F6EAEAA6A6BAB69A9A86878B855
:103BA000B979BB7B7ABABE7E7FBF7DBDBC7CB47465
:103BB00075B577B7B67672B2B373B17170B0509015
:103BC00091519353529296565797559594549C5CA5
:103BD0005D9D5F9F9E5E5A9A9B5B99595898884855
:103BE00049894B8B8A4A4E8E8F4F8D4D4C8C448425
:103BF0008545874746868242438341818040A104B0
:103C00009A0492048A0482047A04720469046004A7
:103C100057044E0444043B04310427041C041204DA
:103C20000704FC03F103E603DB03D003C403B90379
:103C3000AD03A103950389037D0371036503580355
:103C40004C034003330327031B030E030203F60256
:103C5000E902DD02D002C402B802AC029F02940263
:103C600087020000843C00080000002020000000C3
:103C7000E0390008A43C00082000002048030000B0
:103C8000F039000800000000000000000000000003
:103C900000000102030401020304060708090204EC
:043CA0000608000012
:0400000508000131BD
:00000001FF
