:020000040800F2
:10000000000400204701000875010008770100087E
:100010007B0100087F010008830100080000000048
:100020000000000000000000000000008701000840
:1000300089010008000000008B0100088D01000804
:1000400067010008670100086701000867010008F0
:1000500067010008670100086701000867010008E0
:1000600067010008670100086701000867010008D0
:1000700067010008670100086701000867010008C0
:1000800067010008670100086701000867010008B0
:1000900067010008670100086701000867010008A0
:1000A0006701000867010008670100086701000890
:1000B00067010008E3010008670100086701000804
:1000C0006701000867010008670100086701000870
:1000D000670100080D0400086701000867010008B7
:1000E0006701000867010008670100086701000850
:1000F0006701000867010008670100086701000840
:10010000670100086701000867010008670100082F
:10011000670100086701000867010008670100081F
:10012000670100086701000867010008670100080F
:10013000DFF80CD001F0D0FF00480047770200083C
:1001400000030020704708488047084981F3088869
:1001500007480047FEE7FEE7FEE7FEE7FEE7FEE7AB
:10016000FEE7FEE7FEE7FEE745010008000300208A
:1001700031010008704700BFFEE700BFFEE700BF87
:10018000FEE700BFFEE7704770477047704700000A
:100190007FB505460C460121022000F00EFFADF8A8
:1001A0000850ADF804400020ADF80A00ADF8060094
:1001B00001A93A4801F07BF901221146374801F0C4
:1001C00017FC1D208DF8000000208DF80100032091
:1001D0008DF8020001208DF80300684600F00BFD49
:1001E0007FBD10B501212D4801F0C5FE40B10121B0
:1001F0002A4801F0D1FE2A480068401C28490860BE
:1002000010BD10B5FF2000F073F90446772C06D11D
:1002100014222449002000F001FA002010BD002023
:10022000204908804FF4E6704880642088800A20C6
:10023000C88064200881C82048814FF49670888166
:100240004FF4C870C8814FF4FA7008824FF41670EA
:1002500048821422002000F0F2F97721FF2000F0FC
:1002600073F9FF2000F044F90446772C01D10020F7
:10027000D4E70120D2E701F005FF482000F014F890
:1002800000F032F900F008F941F61F4142F20F7018
:10029000FFF77EFFFFF7B5FF00BFFEE70004004059
:1002A00000000020240000204FF0E021096921F027
:1002B00004014FF0E0221161C21700EB5272C2F349
:1002C000C702234B1A701946097801EB4102C2EBB1
:1002D000C1114FF6FF7202EAC1011E4A1180704738
:1002E00001461C4A12884A434FF0E0235A6100221B
:1002F0009A6101221A6100BF4FF0E022106900F0FC
:1003000001021AB100F48032002AF5D000224FF029
:10031000E0231A619A61704701460D4A12784A43F8
:100320004FF0E0235A6100229A6101221A6100BF56
:100330004FF0E022106900F001021AB100F480329F
:10034000002AF5D000224FF0E0231A619A6170472D
:10035000040000200600002000BF704700BF4A4A8A
:10036000128802F04002002AF9D0C2B2464B1B1D8F
:100370001A80704710B586B00446012144F204008B
:1003800000F00EFE4FF40070ADF8140003208DF85D
:10039000160018208DF8170005A93C4800F0F6FA61
:1003A0004FF48060ADF8140004208DF8170005A903
:1003B000364800F0EBFA25208DF8000003208DF878
:1003C00001008DF8020001208DF80300684600F05E
:1003D00012FC01940020ADF80800ADF80A00ADF859
:1003E0000C00ADF810000C20ADF80E0001A9264855
:1003F00000F083FE012240F22551234800F0F7FE71
:100400000121214800F0E7FE06B010BD10B540F212
:1004100025511D4800F0AAFF10B31B4800F047FF0C
:10042000C4B21B48008800F40040C8B918480088CE
:1004300000F4804060B10A2C03D0002014490880E9
:1004400020E01348008840F400401149088019E07A
:100450000D2C06D10E48008840F480400C490880DD
:1004600010E00B480088C0F30D000A490C540848FE
:100470000088401C0649088008460088C72801DD1E
:100480000020088010BD0000003801400008014035
:100490000C0000203800002008B541F6F070ADF8DF
:1004A000000003208DF8020010208DF8030069463B
:1004B0000C4800F06BFA4FF400600A4914310860F0
:1004C000400008602020086040200860802008600C
:1004D000400008604000086040000860102008608C
:1004E00008BD0000000C014010B500F0BBF810BDC5
:1004F00070B50446002600F0CFF82546E11704EB5E
:1005000011610912A02202EB4101C8B200F072F998
:1005100000F003F9E11704EB11610912A4EB0121CA
:10052000C8B200F067F900F0F8F800F0B5F8A120C3
:1005300000F060F900F0F1F8002000F088F90646BC
:1005400000F0CCF8304670BD70B504460E4600F0A1
:10055000A3F82546E11704EB11610912A02202EB72
:100560004101C8B200F046F900F0D7F8E11704EBFA
:1005700011610912A4EB0121C8B200F03BF900F0AF
:10058000CCF8304600F036F900F0C7F800F0A6F8D5
:100590000A20FFF7A5FE70BD2DE9F04105460E4685
:1005A0001746002409E0E20026FA02F2D1B22A1925
:1005B00090B2FFF7C9FF601CC4B2BC42F3DBBDE8D8
:1005C000F0812DE9F04107460C460026002509E0A0
:1005D00036023919491B491E88B2FFF789FF0644C4
:1005E000681CC5B2A542F3DB3046BDE8F08110B50A
:1005F000FF20FFF77DFF0446552C01D1002010BDE0
:100600005521FF20FFF7A0FFFF20FFF771FF0446F1
:10061000552C01D10020F2E70120F0E770B5064625
:100620000C46154608E03046721C96B2FFF760FF94
:1006300004F8010B681E85B2002DF4D170BD70B5B1
:1006400005460C46164606E021782846FFF77CFF53
:10065000681C85B2641C301EA6F101018EB2F3D174
:1006600070BD000008B50121102000F099FC4FF486
:10067000C050ADF8000010208DF8030003208DF865
:10068000020069468A4800F081F901208949086022
:100690008949C1F8AC0108BD10B58548406820F40F
:1006A0007040834948600846406840F440504860C4
:1006B00001208049091F08607F49C1F8B00104206A
:1006C000FFF72AFE00207B49091F08600420FFF77E
:1006D00023FE00207849C1F8B00110BD10B5744860
:1006E000406820F47040724948600846406840F411
:1006F0004050486000206F4908606F49C1F8AC0164
:100700000420FFF709FE01206A4908606A49C1F820
:10071000AC010420FFF700FE10BD10B500246448B2
:10072000406820F47040624948600846406840F4E0
:100730000040486001205F49091F0860FFF7ECFD99
:1007400001205D49C1F8B001FFF7E6FD07E0601C3C
:10075000C4B2FA2C03DDFFF7C1FF012010BD5548DC
:10076000843800680028F2D15249086000BFF5E7DC
:1007700010B500204F4908604D48406820F4704093
:100780004B4948600846406840F4405048600020AB
:100790004949C1F8AC010220FFF7BEFD01204549DF
:1007A00008600220FFF7B8FD00204349C1F8B001FE
:1007B00010BD10B500203F4908603D48406820F456
:1007C00070403B4948600846406840F440504860EB
:1007D00001203949C1F8AC010220FFF79DFD01203D
:1007E000344908600220FFF797FD00203249C1F824
:1007F000B00110BD70B504462D48406820F470402B
:100800002B4948600846406840F44050486000204A
:1008100028490860002517E0E0092649091F0860FB
:100820006006040E0220FFF777FD01202249C1F87F
:10083000B0010220FFF770FD00201E490860022071
:10084000FFF76AFD681CC5B2082DE5DB70BD70B509
:10085000054600241648406820F47040144948605A
:100860000846406840F400404860002616E000203A
:10087000104908600220FFF74FFD01200E49C1F822
:10088000B0016006040E0B488438006808B1601C93
:10089000C4B20120FFF740FD701CC6B2082EE6DB93
:1008A00015B9FFF786FF01E0FFF762FF204670BD34
:1008B00000100140B00122420000224210B504465F
:1008C000C649601A8C422FD009DCC548204480B14B
:1008D000B0F5806F16D0B0F5006F4AD11BE0B0F5CF
:1008E000806F2AD0B0F5006F30D0B0F5406F40D1A6
:1008F00035E00121042000F06DFB0021042000F010
:1009000069FB37E00121082000F064FB002108208A
:1009100000F060FB2EE00121102000F05BFB0021C5
:10092000102000F057FB25E00121202000F052FBB1
:100930000021202000F04EFB1CE00121402000F0AF
:1009400049FB0021402000F045FB13E001218020FD
:1009500000F040FB0021802000F03CFB0AE0012178
:10096000080200F037FB00214FF4807000F032FBEA
:1009700000E000BF00BF10BD10B50121084600F027
:1009800029FB0021012000F025FB10BD2DE9F041DD
:10099000024600250026002000230024002791F8AD
:1009A00003C00CF00F0591F803C00CF0100CBCF163
:1009B000000F03D091F802C04CEA050591F800C081
:1009C000BCF1000F31D0146800202BE04FF0010C77
:1009D0000CFA00F3B1F800C00CEA03069E4220D1E5
:1009E00083004FF00F0C0CFA03F7BC4305FA03FC2D
:1009F0004CEA040491F803C0BCF1280F06D14FF073
:100A0000010C0CFA00FCC2F814C00AE091F803C013
:100A1000BCF1480F05D14FF0010C0CFA00FCC2F8F4
:100A200010C0401C0828D1D31460B1F800C0BCF13C
:100A3000FF0F34DD546800202EE000F1080C4FF069
:100A4000010808FA0CF3B1F800C00CEA03069E4254
:100A500021D183004FF00F0C0CFA03F7BC4305FAC9
:100A600003FC4CEA040491F803C0BCF1280F05D143
:100A700000F1080C08FA0CF8C2F8148091F803C0D1
:100A8000BCF1480F07D100F1080C4FF0010808FA3B
:100A90000CF8C2F81080401C0828CED35460BDE882
:100AA000F0814FF6FF710180022181700421C17035
:100AB00070470246002093680B400BB1012000E014
:100AC000002070470146886880B2704702460020C7
:100AD000D3680B400BB1012000E0002070470146B5
:100AE000C86880B2704701617047416170470AB1C0
:100AF000016100E041617047C16070474FF480328E
:100B00000A4382618161826182698269704702461B
:100B10000020344B18684FF68073184040EA0210EA
:100B20000843304B186070472F49C8617047F0B5D3
:100B30000A4600230024002100252A4E7168C0F3D4
:100B4000034583B200F44016B6F5401F08D121F0EA
:100B50007061244E766826F07066224F7E6012E047
:100B600000F48016B6F5801F06D1032606FA05F4B8
:100B7000A14341F0706106E0460D360103FA06F626
:100B8000B14341F0706122B1460D360103FA06F619
:100B90003143144E7160F0BD30B500228B071C0F3D
:100BA0000F2303FA04F20F4B08338C1053F8243050
:100BB00093430C4C08348D1044F8253023468C1098
:100BC00053F824308C07240F00FA04F42343054C17
:100BD00008348D1044F8253030BD00000014014069
:100BE00000F8FEBF000001400000204231490143EF
:100BF000314A1160704770B5002100230F22C4787C
:100C000004B32D4C246804F4E064C4F5E064210AC4
:100C1000C1F10403CA40447804FA03F18478144013
:100C200021430901254C0678A155047804F01F05DD
:100C30000124AC4005786D11AD0005F1E025C5F843
:100C4000004109E0047804F01F050124AC401C4D6C
:100C50000678761145F8264070BD1A4A0A400243CC
:100C6000154B1B1F1A60704739B1134A121D1268C9
:100C70000243114B1B1D1A6006E00F4A121D126839
:100C800082430D4B1B1D1A607047042808D14FF09A
:100C9000E021096941F004014FF0E022116107E011
:100CA0004FF0E021096921F004014FF0E0221161C9
:100CB000704700000000FA050CED00E000E400E0E1
:100CC00080E100E080FFFF1FDE48006840F0010087
:100CD000DC49086008464068DB490840D94948605B
:100CE00008460068D9490840D649086008460068A7
:100CF00020F4802008600846406820F4FE00486028
:100D0000002088607047CF49096821F48031CD4ABE
:100D100011601146096821F480211160B0F5803F0F
:100D200003D0B0F5802F0ED106E0C649096841F422
:100D30008031C44A116007E0C249096841F4A0212A
:100D4000C04A116000E000BF00BF704710B5014607
:100D50000022002300204A11012A02D1B94C236845
:100D600006E0022A02D1B74C236A01E0B54C636A5F
:100D700001F01F02012494401C400CB1012000E04E
:100D8000002010BD38B5002000900024002500BFD1
:100D90003120FFF7DBFF05460098401C00901DB98D
:100DA0000098B0F5A06FF3D13120FFF7CFFF08B165
:100DB000012400E00024204638BD01460020A14A5D
:100DC000106820F0F80040EAC10010607047A049A8
:100DD00008607047024600209A4B586820F47C1047
:100DE00042EA01031843974B5860704798490866D8
:100DF000704701460020934A506820F003000843E2
:100E0000506070478F48406800F00C007047014602
:100E100000208C4A506820F0F00008435060704772
:100E200001460020874A506820F4E0600843506083
:100E3000704701460020834A506820F4605040EA21
:100E4000C1005060704729B17E4A527A02437D4BFF
:100E50005A7204E07B4A527A82437A4B5A72704744
:100E60007B49D8310860704701460020754A5068B8
:100E700020F440400843506070470021714A2032FE
:100E80001170704A82F82010012802D004280AD17B
:100E900004E001216B4A2032117005E00521694A06
:100EA0002032117000E000BF00BF70476949086040
:100EB00070476449096A0143624A11627047654993
:100EC00044390860704730B5002100220024002317
:100ED0005C4D6D6805F00C0121B1042905D008298D
:100EE00023D105E05C4D056022E05B4D05601FE00D
:100EF000544D6D6805F47012022505EB9242514D78
:100F00006D6805F480341CB9544D554305600BE001
:100F10004C4D6D6805F400351DB1504D55430560CD
:100F200002E04D4D5543056002E04B4D056000BFAA
:100F300000BF444D6D6805F0F0010909484D6B5C38
:100F40000568DD4045603F4D6D6805F4E061090AC4
:100F5000434D6B5C4568DD4085603A4D6D6805F436
:100F60006051C90A3E4D6B5C4568DD40C560354D3A
:100F70006D6805F44041890B3A4D6B5CC568B5FB63
:100F8000F3F5056130BD29B12E4A526902432D4B5C
:100F90005A6104E02B4A526982432A4B5A617047D6
:100FA00029B1284A92690243264B9A6104E0254AF6
:100FB00092698243234B9A61704729B1214AD269D1
:100FC0000243204BDA6104E01E4AD26982431D4B82
:100FD000DA61704729B11B4AD2680243194BDA60C3
:100FE00004E0184AD2688243164BDA60704729B190
:100FF000144A12690243134B1A6104E0114A126940
:101000008243104B1A61704712494039086070479B
:101010000F49C86470470B49C87170470948406A56
:1010200040F0807007494862704701460020054A39
:1010300092680A400AB1012000E00020704701498F
:1010400088727047001002400000FFF8FFFFF6FEB4
:10105000000042428004424200127A0000093D0032
:101060000E0000201E00002010B50446D749601A6B
:101070008C422BD006DCD648204498B1B0F5806F66
:1010800038D119E0B0F5806F2AD0B0F56C4F31D16E
:1010900001218803FFF79EFF00214FF48040FFF7F6
:1010A00099FF28E001214804FFF7A1FF00214FF438
:1010B0000030FFF79CFF1EE001218804FFF797FF37
:1010C00000214FF48020FFF792FF14E00121C804B3
:1010D000FFF78DFF00214FF40020FFF788FF0AE0A3
:1010E00001210805FFF783FF00214FF48010FFF76F
:1010F0007EFF00E000BF00BF10BD2DE9F04786B0C5
:1011000005460E460024A24600BF00BF00272F461A
:101110002C8A4CF6FF700440F08804432C82AC8982
:101120004EF6F3100440B0883189084371890843B2
:101130000443AC81AC8A4FF6FF400440B0890443BD
:10114000AC8201A8FFF7BFFEA248874202D1DDF8BA
:1011500010A001E0DDF80CA00AEBCA0000EB0A10B9
:1011600031688900B0FBF1F86420B8FBF0F00401AD
:101170002009642101FB1089322000EB0910B0FB2B
:10118000F1F000F00F0004432C8106B0BDE8F087B9
:101190004FF4E131016000218180C18001810C2187
:1011A000418100218181704710B502460020108ADC
:1011B0004FF2FF0318400B884C8823438C8823434D
:1011C000CC8823431843108210BD00210180418048
:1011D0008180C180704721B1828942F400528281AE
:1011E00004E082894DF6FF731A4082817047F0B5A2
:1011F000034600240026002500201846C1F34214AF
:1012000001F01F06012707FA06F5012C01D10C3069
:1012100004E0022C01D1103000E014301AB107684C
:101220002F43076002E00768AF430760F0BD1AB1C3
:10123000838A0B43838202E0838A8B4383827047D5
:10124000028A4FF6F0731A400282028A0A4302822F
:10125000704782894FF2FF731A40828182890A4364
:101260008281704721B1828942F00202828104E0CA
:1012700082894FF6FD731A4082817047028A4FF6C9
:10128000DF731A400282028A0A430282704721B148
:10129000028A42F48042028204E0028A4BF6FF7323
:1012A0001A4002827047C1F30802828070470146EB
:1012B0008888C0F308007047818941F0010181816D
:1012C0007047028BD2B20283028B42EA0122028370
:1012D0007047028B02F47F420283028B0A4302832F
:1012E000704721B1828A42F02002828204E0828A21
:1012F0004FF6DF731A408282704721B1828A42F032
:101300001002828204E0828A4FF6EF731A408282D2
:10131000704721B1828A42F00802828204E0828A08
:101320004FF6F7731A4082827047828A4FF6FB733A
:101330001A408282828A0A438282704721B1828A5D
:1013400042F00202828204E0828A4FF6FD731A4064
:10135000828270470246002013880B400BB10120A7
:1013600000E000207047CA430280704770B5024613
:101370000B460024002100250020C3F3421503F092
:101380001F01012606FA01F1012D02D19689314093
:1013900006E0022D02D1168A314001E0968A3140E2
:1013A0001C12012606FA04F41688344011B10CB15F
:1013B000012000E0002070BD10B5002200230A12B9
:1013C00001249440A3B2DC43048010BD004C0040D3
:1013D00000BCFFBF0038014010B50446F749601A51
:1013E0008C4245D00CDCB4F1804F1DD0F448204431
:1013F00018B3B0F5806F29D0B0F5006F54D12EE04E
:10140000B0F5806F3DD0B0F58E3F03D0B0F5923F80
:101410004AD13FE00121C802FFF7DCFD00214FF473
:101420000060FFF7D7FD40E001210846FFF7DFFD30
:1014300000210120FFF7DBFD37E001210220FFF74B
:10144000D6FD00210220FFF7D2FD2EE0012104206D
:10145000FFF7CDFD00210420FFF7C9FD25E00121A4
:101460000820FFF7C4FD00210820FFF7C0FD1CE0A5
:1014700001211020FFF7BBFD00211020FFF7B7FD71
:1014800013E001212020FFF7B2FD00212020FFF70B
:10149000AEFD0AE001214803FFF79CFD00214FF457
:1014A0000050FFF797FD00E000BF00BF10BD0288AD
:1014B00002F08F020280CA884B881A4303881A43BD
:1014C00002808A8882850A880285BE4A904202D0BC
:1014D000BD4A904201D10A7A028601228282704777
:1014E00070B5002400220023058C4FF6FE763540AF
:1014F0000584028C8388048B4FF68F752C400D88F1
:101500002C43751E2A400D892A434D882A43CD88D5
:101510008586AC4DA84202D0AB4DA84213D14FF600
:10152000F7752A404D892A434FF6FB752A408D886E
:101530002A4347F6FF652B4047F6FF552B408D8920
:101540002B43CD892B4383800483028470BD70B507
:10155000002400220023058C4FF6EF7635400584E9
:10156000028C8388048B48F6FF752C400D884FF65B
:10157000FF7606EA05252C434FF6DF752A400D89D4
:1015800006EA05152A434D8806EA05152A43CD8843
:1015900005878C4DA84202D08B4DA8421DD14FF635
:1015A0007F752A404D894FF6FF7606EA05152A43D6
:1015B0004FF6BF752A408D8806EA05152A4347F67F
:1015C000FF352B4047F2FF752B408D8906EA8505D4
:1015D0002B43CD8906EA85052B438380048302844F
:1015E00070BD70B5002400220023058C4FF6FF6605
:1015F00035400584028C8388848B4FF68F752C4090
:101600000D882C434FF6FF552A400D894FF6FF7683
:1016100006EA05252A434D8806EA05252A43CD8892
:101620008587684DA84202D0674DA8421DD14FF270
:10163000FF752A404D894FF6FF7606EA05252A43B5
:101640004FF6FF352A408D8806EA05252A4346F6DF
:10165000FF752B4045F6FF752B408D8906EA051571
:101660002B43CD8906EA05152B43838084830284AE
:1016700070BD70B5002400220023058C4EF6FF7665
:1016800035400584028C8388848B48F6FF752C4096
:101690000D884FF6FF7606EA05252C434DF6FF75BB
:1016A0002A400D8906EA05352A434D8806EA0535A4
:1016B0002A43CD88A0F84050424DA84202D0424D66
:1016C000A84207D1C3F30D038D894FF6FF7606EAD2
:1016D00085152B4383808483028470BD828B4FF2F7
:1016E000FF331A408283828B4FF6FF7303EA012394
:1016F0001A4382837047F0B50C461546002100223C
:101700000026078C4EF6FF7C07EA0C070784818BC6
:10171000028C4FF6FF7707EA043640F6FF47394060
:101720004FF6FF7707EA05274FF6FF7C0CEA033CEC
:1017300047EA0C0739434DF6FF773A4046F48057A5
:101740003A4381830284F0BD828B4FF6F3731A40D3
:101750008283828B0A4382837047F0B50C4615461C
:10176000002100220026078C4FF6FF6C07EA0C07C9
:101770000784818B028C4FF6FF7707EA04264FF629
:101780000C7739404FF6FF7707EA03172F433943A9
:101790004FF6FF573A4046F480773A4381830284FC
:1017A000F0BD028B4FF2FF331A400283028B4FF6DB
:1017B000FF7303EA01231A430283704700100040BD
:1017C00000FCFFBF002C014000340140F0B50C4686
:1017D0001546002100220026078C4FF6EF7C07EA11
:1017E0000C070784018B028C4FF6FF7707EA04167B
:1017F00040F6FF4739404FF6FF7707EA0337394392
:101800004FF6FF7707EA052739434FF6DF773A406F
:1018100046F010073A4301830284F0BD028B4FF675
:10182000F3731A400283028B0A4302837047F0B5B8
:101830000C46154600210022068C4FF6FE773E40EE
:101840000684018B028C4FF60C7631407E1C06EA32
:1018500003162E4331437E1E324044F001063243CC
:1018600001830284F0BD70B505460C46208850B94E
:101870002389A28861882846FFF7D9FFE188284696
:10188000FFF7CCFF25E0208804280AD12389A2880D
:1018900061882846FFF79AFFE1882846FFF781FF15
:1018A00017E0208808280AD12389A2886188284661
:1018B000FFF753FFE1882846FFF746FF09E0238939
:1018C000A28861882846FFF716FFE1882846FFF7BF
:1018D00005FF70BD2DE9F04105460C4600260127A5
:1018E000608808B9022600E00026A088012801D1FE
:1018F000022700E001272088A0B92389A2886188F7
:101900002846FFF794FFE1882846FFF787FF2389E1
:101910003A4631462846FFF759FFE1882846FFF747
:1019200040FF13E02389A28861882846FFF74EFF15
:10193000E1882846FFF735FF23893A463146284695
:10194000FFF775FFE1882846FFF768FFBDE8F081E3
:101950000A884B881A438B881A43CB881A430B8911
:101960001A434B891A438B891A43A0F844207047C5
:101970004FF6FF71818000210180C180418001729A
:1019800070470021018041808180C18001814181B7
:101990008181C181704700210180418001218180C6
:1019A0000021C18001817047002101804180818038
:1019B000C180018141818181704721B1028842F05B
:1019C0000102028004E0028840F2FE331A400280E5
:1019D000704731B1B0F8442042F40042A0F84420EE
:1019E00005E0B0F84420C2F30E02A0F8442070478E
:1019F0001AB183890B43838102E083898B438381FE
:101A000070478182704741EA0203A0F8483070476E
:101A10001AB183890B43838102E083898B438381DD
:101A2000704701894FF6F8721140018170470A46EC
:101A3000002101894FF68F731940114301817047CE
:101A400030B504460D4629462046FFF7F0FF2089B1
:101A500040F00700208130BD2DE9F04104460D46DD
:101A600016461F46602D06D13B46012231462046D0
:101A7000FFF7ACFE05E03B46012231462046FFF76A
:101A8000D6FE29462046FFF7D2FF208940F0070006
:101A90002081BDE8F08170B50C4600210189C9B2F2
:101AA00044EA02054FF6FF7606EA0326354329434A
:101AB000018170BD2DE9F04105460E461746984656
:101AC000002443463A4631462846FFF7E4FF2C8976
:101AD0004FF6F870044044F007044FF68F7004404E
:101AE00044F070042C81BDE8F081F0B504460D4649
:101AF00016461F463B46324629462046FFF7CBFF97
:101B0000208940F480402081F0BD018582827047A9
:101B10000A460021018840F28F33194011430180A9
:101B20007047F0B50C4615461E46002100220023E2
:101B30000189028B038C4FF6F877394021434FF629
:101B4000FC473A4040F201173A434FF6DD773B40FD
:101B50004FF6FF7707EA06172F433B4301810283C5
:101B60000384F0BD0A460021018B4FF68F731940A4
:101B70001143018370470A460021018B48F6FF7329
:101B800019404FF6FF7303EA02231943018370479C
:101B90000A460021818B4FF68F73194011438183D0
:101BA00070470A460021818B48F6FF7319404FF6B3
:101BB000FF7303EA022319438183704721B102882E
:101BC00042F08002028004E0028840F27F331A4033
:101BD0000280704721B1828842F00402828004E0D2
:101BE00082884FF6FB731A408280704721B1828849
:101BF00042F00802828004E082884FF6F7731A40B0
:101C00008280704721B1828842F00102828004E024
:101C100082884FF6FE731A40828070470A46002180
:101C2000018B4FF6F77319401143018370470A4641
:101C30000021018B4FF2FF7319404FF6FF7303EA47
:101C400002231943018370470A460021818B4FF616
:101C5000F77319401143818370470A460021818B35
:101C60004FF2FF7319404FF6FF7303EA0223194343
:101C7000818370470A460021018B4FF6FB731940A0
:101C80001143018370470A460021018B4FF6FF3351
:101C900019404FF6FF7303EA02231943018370478B
:101CA0000A460021818B4FF6FB7319401143818353
:101CB00070470A460021818B4FF6FF3319404FF6DB
:101CC000FF7303EA02231943818370470A46002108
:101CD000018B4FF67F7319401143018370470A4609
:101CE0000021018BC1F30E014FF6FF7303EA0223BB
:101CF0001943018370470A460021818B4FF67F7399
:101D000019401143818370470A460021818BC1F33A
:101D10000E014FF6FF7303EA0223194381837047D4
:101D20000A460021018C4FF6FD73194011430184CE
:101D300070470A460021018C4FF6F7731940114392
:101D4000018470470A460021018C4FF6DF73194069
:101D50004FF6FF7303EA02131943018470470A46E2
:101D60000021018C4FF67F7319404FF6FF7303EA91
:101D700002131943018470470A460021018C4FF673
:101D8000FF5319404FF6FF7303EA022319430184FE
:101D900070470A460021018C4FF2FF7319404FF63D
:101DA000FF7303EA02231943018470470A460021A6
:101DB000018C4DF6FF7319404FF6FF7303EA0233AF
:101DC00019430184704710B5038C01248C40A34350
:101DD0000384038C02FA01F4A4B22343038410BDEC
:101DE00010B5038C04248C40A3430384038C02FAB3
:101DF00001F4A4B22343038410BD30B5038C012445
:101E00008C40A343038409B1082918D100F11803B9
:101E100003EB61031B684FF68F74234000F1180435
:101E200004EB6104236000F1180303EB61031B68FA
:101E3000134300F1180404EB610423601FE00B1F3F
:101E4000C3F34E0400F118031B5948F6FF742340F6
:101E50000C1FC4F34E0500F1180463510B1FC3F3AC
:101E60004E0400F118031B594FF6FF7404EA0224D4
:101E700023430C1FC4F34E0500F11804635130BD19
:101E800021B1028842F00202028004E0028840F29E
:101E9000FD331A400280704721B1028842F00402EB
:101EA000028004E0028840F2FB331A40028070474F
:101EB00021B1828842F08002828004E082884FF65D
:101EC0007F731A4082807047028840F2F7331A40CD
:101ED000028002880A430280704782884FF68F731F
:101EE0001A40828082880A438280704702894FF6B6
:101EF000F8731A40028102890A43028170470289FD
:101F00004FF67F731A40028102890A4302817047AB
:101F1000818470478185704781867047018770474B
:101F200081877047A0F8401070470288D2B20280C3
:101F300002880A43028070470146888E7047014636
:101F4000088F70470146888F70470146B1F84000FE
:101F500070470146888C70470146088D70470246DD
:101F60000020138A0B400BB1012000E000207047D5
:101F7000CA430282704730B5024600200023002485
:101F8000158A05EA0103958905EA010413B10CB12C
:101F9000012000E0002030BDCA43028270470000EB
:101FA0000CB50020019000904748006840F4803054
:101FB0004549086000BF4448006800F400300090C4
:101FC0000198401C0190009818B90198B0F5A06FD5
:101FD000F1D13D48006800F4003010B101200090BC
:101FE00001E0002000900098012844D137480068A3
:101FF00040F01000354908600846006820F00300F2
:1020000008600846006840F0020008602E484068FA
:102010002D4948600846406848600846406840F4DA
:10202000806048600846406820F47C10486008469C
:10203000406840F4E81048600846006840F080704E
:10204000086000BF2048006800F000700028F9D048
:102050001D48406820F003001B494860084640685E
:1020600040F00200486000BF1748406800F00C00D4
:102070000828F9D101E000BFFEE70CBD10B5FFF75D
:102080008FFF10BD10B51048006840F001000E49E8
:102090000860084640680E4908400B4948600846F9
:1020A00000680C490840084908600846006820F4A8
:1020B000802008600846406820F4FE004860002048
:1020C0008860FFF7DBFF10BD0010024000200240D7
:1020D0000000FFF8FFFFF6FE064C074D06E0E06843
:1020E00040F0010394E8070098471034AC42F6D35F
:1020F000FEF722F81C2100083C21000802E008C875
:10210000121F08C1002AFAD170477047002001E071
:1021100001C1121F002AFBD1704700003C210008BA
:102120000000002024000000FC20000860210008BE
:1021300024000020DC0200000C2100080000000048
:10214000000000000000000000000000000001028C
:10215000030401020304060708090204060800003C
:0400000508000131BD
:00000001FF
